:020000040800F2
:10000000B0CB0224AD02000849890008BB030008F8
:10001000BB030008C904000861E0000800000000FC
:1000200000000000000000000000000051970008E0
:10003000590600080000000007030008E9970008BF
:10004000CB020008CB020008CB020008CB0200085C
:10005000CB020008CB020008CB020008CB0200084C
:10006000CB020008CB020008CB020008CB0200083C
:10007000CB020008CB020008CB020008CB0200082C
:10008000CB020008CB020008CB020008CB0200081C
:10009000CB020008CB020008CB020008CB0200080C
:1000A000519D0008819D0008719D0008619D000818
:1000B000B99D0008F19D0008299E0008CB020008A8
:1000C000CB020008CB020008CB020008CB020008DC
:1000D000CB020008CB020008CB020008CB020008CC
:1000E000CB020008CB02000800000000999E000827
:1000F000E99E0008C99E0008B99E0008CB020008CE
:10010000CB020008CB020008619E0008CB02000869
:10011000CB020008CB020008CB020008CB0200088B
:10012000CB020008CB020008CB020008CB0200087B
:10013000CB020008CB020008CB020008CB0200086B
:1001400000000000000000000000000000000000AF
:10015000CB020008CB020008CB020008CB0200084B
:10016000CB020008CB020008CB020008CB0200083B
:10017000CB020008B9890008CB020008000000008B
:10018000CB020008CB020008CB020008CB0200081B
:10019000CB020008CB020008CB020008CB0200080B
:1001A000CB020008CB020008CB020008CB020008FB
:1001B00001920008CB020008CB020008CB02000825
:1001C000CB020008CB020008CB020008CB020008DB
:1001D000CB020008CB020008CB020008CB020008CB
:1001E000CB020008CB020008CB020008CB020008BB
:1001F000CB020008CB020008CB020008CB020008AB
:10020000CB020008CB020008CB020008CB0200089A
:10021000CB020008CB020008CB020008CB0200088A
:10022000CB020008CB020008717E0008000000002D
:10023000CB020008CB02000800000000CB0200083F
:10024000CB020008CB020008CB020008CB0200085A
:10025000CB020008CB020008CB020008CB0200084A
:10026000CB020008CB020008CB020008CB0200083A
:10027000CB020008CB020008CB02000800000000FF
:10028000CB020008CB020008CB02000800000000EF
:1002900000000000CB020008DFF80CD000F0B6F838
:1002A00000480047B9040008B0CB02240748804743
:1002B0000748804707480047FEE7FEE7FEE7FEE7FE
:1002C000FEE7FEE7FEE7FEE7FEE7FEE76906000859
:1002D000C99B000899020008EFF3108072B67047BE
:1002E00080F310887047434A1368012B04D04FF005
:1002F00001031360404A1060404A116040484FF0CB
:10030000805101607047EFF3108272B6394801687E
:1003100051B34FF0000101603748016891B1EFF32C
:1003200009811EF0100F08BF21ED108B21E9F00F9D
:100330004FF000041EF0100F08BF012441F8044DD7
:10034000006801602D490968096808C9B1E8F00F23
:10035000002B18BFB1EC108B81F309884EF0100E02
:10036000002B18BF2EF0100E82F310884EF0040EF2
:10037000704722490860EFF3148222F0040282F3EE
:1003800014881D494FF0000008601A494FF0010021
:1003900008601C484FF47F01D0F8002041EA0201B8
:1003A000016017484FF080510160174800680068ED
:1003B00080F3088861B662B670471EF0040F0CBF68
:1003C000EFF30880EFF3098020E9F00F40F804ED27
:1003D00040F804ED1EF0040F0CBF80F3088880F392
:1003E000098800B512F0DCFA5DF804EB4EF0040E5B
:1003F00070470000D04C0224C84C0224CC4C02248C
:1004000004ED00E020ED00E008ED00E0064C074DB3
:1004100006E0E06840F0010394E8070098471034D4
:10042000AC42F6D3FFF73CFF3048010850480108C2
:1004300040EA01039B0703D009E008C9121F08C066
:10044000042AFAD203E011F8013B00F8013B521EE6
:10045000F9D27047D2B201E000F8012B491EFBD25D
:1004600070470022F6E710B513460A4604461946BF
:10047000FFF7F0FF204610BD30B58C1810F8012BA7
:1004800012F00F0301D110F8013B120906D110F848
:10049000012B03E010F8015B01F8015B5B1EF9D151
:1004A00001E001F8013B521EFBD1A142E6D300203E
:1004B00030BD00000000000080B513F041FD0020B9
:1004C00080BD000000000000FFE7FEE70000000024
:1004D00083B08DF80B000191ADF802209DF80B0060
:1004E00023281CD8DFE800F012131415161B1B1B61
:1004F0001B1B1B1B1B1B1B1B1B1B1B1B1B1B1B1B4C
:100500001B1B1B1B1B1B1B1B1718191A08E007E0E2
:1005100006E005E004E003E002E001E000E0FFE7C0
:10052000002003B07047000000207047000000006A
:1005300010B543F2E404C2F2024443F2C051C2F2E5
:100540000241204600220AF02BFC43F6C051C2F2C1
:10055000024120460AF004FC002010BD000000000B
:1005600010B582B001900091019943F2E404C2F207
:10057000024420460AF0F4FB20460AF09DFB009856
:10058000006841F68831C2F20141B1F80310084415
:1005900045F2EF51884215D8FFE741F68834C2F2A0
:1005A0000144B4F80300204405300199009A126810
:1005B000FFF73EFF00980068B4F803100844A4F861
:1005C0000300FFE741F68830C2F20140012181704B
:1005D00000210180002002B010BD000000000000DA
:1005E00083B0029001918DF8032000208DF8020065
:1005F0009DF9020003B0704710B584B00290ADF8C9
:10060000061000208DF8050043F2E400C2F202401B
:10061000D0F8BC0200900098D0F8140220B1FFE797
:1006200001208DF80F0013E00299BDF8062043F277
:10063000E404C2F2024420460AF0B2FB20460AF06B
:10064000AFFC8DF805009DF805008DF80F00FFE761
:100650009DF80F0004B010BD7047000000000000BE
:1006600072B6FFE7FEE7000044F60C00C5F6020094
:10067000016841F002010160FFE744F60400C5F69D
:10068000020000688004002801D4FFE7F5E7704706
:1006900080B582B08DF807009DF807200020C5F6D0
:1006A00002004FF4004100F0EBFB02B080BD0000FF
:1006B00010B584B041F60520C2F20140039000203D
:1006C000ADF80A004FF4C270ADF808009DF80B00B9
:1006D0008DF80700BDF80A008DF806000020FFF72E
:1006E000D7FF43F2BF01C2F20241032008709DF818
:1006F000070048709DF80600887040F2B854C2F2B6
:10070000004420460322642306F0FEF80399BDF856
:1007100008202046642305F04BFE0120FFF7B8FFB8
:1007200004B010BD00000000B0B584B041F6052053
:10073000C2F2014003900020ADF80A004FF4C270ED
:10074000ADF808009DF80B008DF80700BDF80A0011
:100750008DF806000020FFF79BFF43F2BF04C2F2B2
:1007600002440620207040F2B855C2F200452846E7
:1007700021460122642306F0C7F80120FFF788FF15
:100780000FF0D2FC0020FFF783FF022020709DF8BD
:10079000070060709DF80600A070284621460322DD
:1007A000642306F0B1F80399BDF8082028466423B5
:1007B00006F0AAF80120FFF76BFF0FF0B5FC002050
:1007C000FFF766FF0420207028462146012264239B
:1007D00006F09AF80120FFF75BFF04B0B0BD0000FF
:1007E00010B584B04EF60000C1F6F17000680390B9
:1007F0004EF60400C1F6F170006802904EF6080053
:10080000C1F6F170006801900198039908440390C3
:10081000039880B1FFE7039840F22C04C2F2004431
:10082000A11C082207F0E8FA029804F11201042240
:1008300007F0E2FAFFE704B010BD0000000000007E
:1008400080B584B0039000F03BFB029003980190C8
:100850000198013020B1FFE7019801300190FFE7D6
:10086000FFE700F02DFB0299401A0199884201D25E
:10087000FFE7F6E704B080BD86B005900491002044
:1008800003908020C5F600000090FFE704980399CC
:10089000C840002800F0FE80FFE704980399012279
:1008A00002FA01F1084002900298002800F0EE8060
:1008B000FFE7039820F0030040F20841C5F600016D
:1008C00040580190039800F0030080000F2101FAC6
:1008D00000F0019908400190019805990022C5F6A1
:1008E0000202914202D1FFE7002161E0059940F246
:1008F0000042C5F60202914202D1FFE7012156E013
:10090000059940F60002C5F60202914202D1FFE7C6
:1009100002214BE0059940F60042C5F602029142E1
:1009200002D1FFE7032140E0059941F20002C5F63C
:100930000202914202D1FFE7042135E0059941F21C
:100940000042C5F60202914202D1FFE705212AE0EA
:10095000059941F60002C5F60202914202D1FFE775
:1009600006211FE0059941F60042C5F602029142B8
:1009700002D1FFE7072114E0059942F20002C5F613
:100980000202914202D1FFE7082109E0059A42F2F2
:100990000043C5F602030A219A4208BF0921FFE776
:1009A000FFE7FFE7FFE7FFE7FFE7FFE7FFE7FFE717
:1009B000039A02F0030292009140884230D1FFE78F
:1009C000029800990A6822EA0000086002980099DB
:1009D0004A6822EA0000486002980421C5F6000136
:1009E0000A6822EA0000086002984FF0B0410A68E5
:1009F00022EA00000860039800F0030080000F2145
:100A000001FA00F001900198039921F0030140F2EE
:100A10000842C5F600028B5823EA00008850FFE721
:100A2000039841004FF0030C0CFA01F1059A13688A
:100A300019431160039901F0070292000F2303FA92
:100A400002F2059B6FF0030000EA51001844016AAE
:100A500091430162039840000CFA00F00599CA68BE
:100A600022EA0000C8600398012101FA00F005990C
:100A70004A6822EA00004860039840000CFA00F03F
:100A800005998A6822EA00008860FFE70398013030
:100A90000390FBE606B0704787B0069005910020F2
:100AA00004908020C5F600000190FFE705980068DB
:100AB0000499C840002800F0C581FFE70598006848
:100AC0000499012202FA01F10840039003980028DA
:100AD00000F0B481FFE70598406800F003000128AA
:100AE00007D0FFE70598406800F0030002282FD1E7
:100AF000FFE706988068029004984000032101FAFD
:100B000000F0029921EA000002900598C06804995B
:100B1000490088400299084302900298069988602B
:100B20000698406802900498012101FA00F00299A9
:100B300021EA0000029005984068C0F30010049973
:100B40008840029908430290029806994860FFE79E
:100B50000598406800F0030003280CD1FFE70598D2
:100B6000406800F0030003281DD1FFE70598806866
:100B7000012818D0FFE70698C0680290049840004A
:100B8000032101FA00F0029921EA00000290059881
:100B900080680499490088400299084302900298AD
:100BA0000699C860FFE70598406800F00300022836
:100BB00026D1FFE7069804996FF0030202EA51017B
:100BC0000844006A0290049800F0070080000F219A
:100BD00001FA00F0029921EA0000029005980069EC
:100BE000049901F0070189008840029908430290A6
:100BF00002980699049B02EA530211440862FFE737
:100C000006980068029004984000032101FA00F061
:100C1000029921EA000002900598406800F0030064
:100C20000499490088400299084302900298069965
:100C30000860059880798007002800F0FE80FFE7B3
:100C4000FFE744F2F440C5F60200016841F00201FA
:100C50000160006800F0020000900098FFE704982F
:100C600020F0030040F20841C5F600014058029010
:100C7000049800F0030080000F2101FA00F00299AF
:100C800021EA0000029006980021C5F60201884280
:100C900002D1FFE7002061E0069840F20041C5F66E
:100CA0000201884202D1FFE7012056E0069840F693
:100CB0000001C5F60201884202D1FFE702204BE0A5
:100CC000069840F60041C5F60201884202D1FFE7CE
:100CD000032040E0069841F20001C5F60201884277
:100CE00002D1FFE7042035E0069841F20041C5F645
:100CF0000201884202D1FFE705202AE0069841F66A
:100D00000001C5F60201884202D1FFE706201FE07C
:100D1000069841F60041C5F60201884202D1FFE77C
:100D2000072014E0069842F20001C5F6020188424D
:100D300002D1FFE7082009E0069942F20042C5F619
:100D400002020A20914208BF0920FFE7FFE7FFE700
:100D5000FFE7FFE7FFE7FFE7FFE7FFE7049901F0A1
:100D6000030189008840029908430290029804997F
:100D700021F0030140F20842C5F6000288504FF00E
:100D8000B040006802900398029921EA00000290A6
:100D900005988079C006002805D5FFE703980299D9
:100DA00008430290FFE702984FF0B041086004202A
:100DB000C5F60000006802900398029921EA00003D
:100DC0000290059880798006002805D5FFE70398F2
:100DD000029908430290FFE702980421C5F600013A
:100DE00008600198406802900398029921EA000087
:100DF0000290059880798007002805D5FFE70398C1
:100E0000029908430290FFE702980199486001980F
:100E1000006802900398029921EA00000290059868
:100E20008079C00728B1FFE7039802990843029030
:100E3000FFE7029801990860FFE7FFE70498013097
:100E4000049033E607B0704783B040F20040C5F627
:100E5000020002908020ADF80600029840690090E0
:100E60000098BDF8061000EA010221EA000040EAFD
:100E700002400299886103B0704700000000000042
:100E800082B00190ADF802108DF801209DF80100AC
:100E900028B1FFE7BDF802000199886105E0BDF8BF
:100EA0000200000401998861FFE702B0704700006A
:100EB00041F20000C5F600400068000C70470000D9
:100EC00043F2E000C2F202400068704700000000F8
:100ED00043F2E000C2F20240016801310160704754
:100EE00080B582B000F038FC04F0BAF844F2184142
:100EF000C5F602010A68C2F3032244F2AA73C0F6DF
:100F000001039A5C02F01F02D0400090009809682B
:100F100001F00F01595C01F01F01C84040F20801C7
:100F2000C2F200410860009840F20401C2F20041A0
:100F300008600F2000F010F820B1FFE701208DF8C5
:100F4000070005E000F0C4FB00208DF80700FFE774
:100F500002B080BD0000000080B582B00090FFE7C5
:100F600040F20400C2F20040006844F6D351C1F2DE
:100F70006201A0FB0101880905F0B2FE20B1FFE784
:100F800001208DF8070017E000980F280CD8FFE724
:100F900000994FF0FF3000F0C7FB009840F20001CD
:100FA000C2F20041086003E001208DF8070003E071
:100FB00000208DF80700FFE79DF8070002B080BD14
:100FC00080B584B00290FFF77BFF0190029820B9B2
:100FD000FFE701208DF80F0053E0029890F83D00E4
:100FE00002280DD0FFE7029880218166FFE7029872
:100FF000002180F83C10FFE701208DF80F0040E051
:1010000002980068C16821F03E01C1600298006842
:10101000C16821F00101C160FFE702980068C06863
:10102000C007D8B1FFE7FFF74BFF0199401A062828
:1010300013D3FFE70298816E41F040018166FFE71C
:101040000298002180F83C10FFE70298032180F805
:101050003D1001208DF80F0013E0DEE702980068D4
:101060001F214160FFE70298002180F83C10FFE754
:101070000298012180F83D10FFE700208DF80F0055
:10108000FFE79DF80F0004B080BD000000000000E5
:1010900082B00090009820B9FFE701208DF807008A
:1010A0001BE0009890F83D00022807D0FFE7009869
:1010B0008021816601208DF807000EE00098042150
:1010C00080F83D1000980068C16821F00101C160FE
:1010D000FFE700208DF80700FFE79DF8070002B04A
:1010E000704700000000000085B040F23C40C2F2B2
:1010F000004003900020029001908DF803000398B7
:1011000020B9FFE701208DF813004BE0FFE70398BB
:1011100090F83C00012804D1FFE702208DF813006D
:1011200040E00398012180F83C10FFE7FFE70398B7
:1011300090F83D00012826D1FFE703980068006978
:10114000400000281AD4FFE7029803990968086351
:101150000198039909684863029838B9FFE7039832
:101160000068016921F00041016106E00398006810
:10117000016941F000410161FFE703E001208DF8C2
:101180000300FFE703E001208DF80300FFE7FFE71E
:101190000398002180F83C10FFE79DF803008DF8CC
:1011A0001300FFE79DF8130005B070470000000032
:1011B00082B00090009820B9FFE701208DF8070069
:1011C0003DE000980068C16821F00101C16000980D
:1011D00001680020C86000990968086100990968E1
:1011E000486100990968886100990968C861009997
:1011F000096808620099096848620099096888626C
:1012000000990968086300990968486300990968AA
:101210001F224A600099C8650099086600994866CF
:1012200000998866009981F83D00FFE70098002149
:1012300080F83C10FFE700208DF80700FFE702B0C0
:10124000704700000000000080B586B040F23C40CE
:10125000C2F2004005900020049040F20400C2F267
:101260000040006848F2B511C1F64E31A0FB010103
:10127000880A0390059800684FF6C071CAF6FF51BE
:101280000844C0F38410012101FA00F002904FF0ED
:10129000A44000680299084201D1FFE736E10598B1
:1012A00000680068C007002858D0FFE7059800686C
:1012B000C0688007002850D5FFE705980068C1681E
:1012C00021F00201C16005980068806801909DF8D6
:1012D00004000006002806D4FFE70598816E41F05F
:1012E0000101816605E00598816E41F00201816689
:1012F000FFE79DF805008007002806D5FFE7059861
:10130000816E41F004018166FFE79DF80500C0078A
:1013100030B1FFE70598816E41F008018166FFE773
:101320009DF805004007002806D5FFE70598816E67
:1013300041F010018166FFE79DF8050000070028D5
:1013400006D5FFE70598816E41F020018166FFE731
:101350000598006801214160FFE7FFE705980068F4
:101360000068C006002815D5FFE705980068C0682A
:10137000800600280DD5FFE7059800681021416020
:101380000598806C20B1FFE70598816C8847FFE7DE
:10139000FFE7FFE70598006800680007002815D5FB
:1013A000FFE705980068C068C00600280DD5FFE774
:1013B00005980068082141600598C06C20B1FFE7DE
:1013C0000598C16C8847FFE7FFE7FFE705980068CD
:1013D00000684007002815D5FFE705980068C06839
:1013E000000700280DD5FFE705980068042141603B
:1013F0000598006D20B1FFE70598016D8847FFE76C
:10140000FFE7FFE7059800680068800700283ED5E1
:10141000FFE705980068C0684007002836D5FFE759
:1014200005980068C16821F03E01C160059890F8F8
:101430003D00042813D1FFE7FFE70598002180F85D
:101440003C10FFE70598012180F83D100598806D5C
:1014500020B1FFE70598816D8847FFE756E00598C2
:10146000006802214160FFE70598002180F83C10E8
:10147000FFE70598012180F83D100598406C20B1E8
:10148000FFE70598416C8847FFE7FFE7FFE705980E
:10149000806ED8B3FFE70598042180F83D100598C9
:1014A0000068C16821F00101C160FFE704980130C4
:1014B00004900399884201D9FFE708E0FFE7059807
:1014C0000068C068C0070028F0D1FFE7FFE7FFE72A
:1014D0000598002180F83C10FFE705980068C06877
:1014E000C00728B1FFE70598032180F83D1004E00C
:1014F0000598012180F83D10FFE70598406D20B167
:10150000FFE70598416D8847FFE7FFE706B080BD1C
:1015100080B584B040F23C40C2F200400290FFF738
:10152000CFFC0190029820B9FFE701208DF80F0051
:101530003CE0FFE70298002180F83C10FFE70298AA
:10154000022180F83D1002980068C16821F0010175
:10155000C160FFE702980068C068C00798B1FFE764
:10156000FFF7AEFC0199401A06280BD3FFE702985B
:10157000402181660298032180F83D1001208DF8FA
:101580000F0013E0E6E7029806F076FC02980021CF
:10159000C1650298016602984166029881660298C8
:1015A000012280F83D208DF80F10FFE79DF80F0015
:1015B00004B080BD0000000080B588B006900591A1
:1015C0000492039301200290069820B9FFE70120BE
:1015D0008DF81F0076E0FFE7069890F83C000128A0
:1015E00004D1FFE702208DF81F006BE0069801216F
:1015F00080F83C10FFE7FFE7069890F83D000128CF
:1016000052D1FFE70698022180F83D10069800218C
:10161000816606980068C16821F00101C1600698E2
:101620000599049A039BDDF808C0CDF800C006F0C8
:10163000ABFC06980068C16841F00601C1600698DD
:10164000C06C38B1FFE706980068C16841F010012E
:10165000C160FFE70698006D38B1FFE706980068A3
:10166000C16841F00801C160FFE70698806C38B19D
:10167000FFE706980068C16841F02001C160FFE7FC
:1016800006980068C16841F00101C1600698406891
:10169000B0F1804F07D1FFE706980068C16841F4B8
:1016A0008031C160FFE709E0FFE70698002180F87C
:1016B0003C10FFE702208DF81F0003E000208DF8AA
:1016C0001F00FFE79DF81F0008B080BD000000006C
:1016D00081B0FFE744F2F440C5F60200016841F032
:1016E00002010160006800F0020000900098FFE72E
:1016F00001B070470000000080B582B05C20ADF8FA
:101700000600BDF906000CF0AFFC02B080BD000081
:1017100080B582B0ADF80600BDF906000CF0C4FC3F
:1017200002B080BD0000000010B584B0ADF80E001E
:101730000291002001900CF0D3FC0090BDF90E4006
:1017400000980299019A07F003F9014620460CF02F
:10175000CFFC04B010BD000080B582B00320019022
:1017600001980CF0E9FC02B080BD00000000000010
:1017700082B0019001980068009001980121C0F8A2
:10178000D8140198002180F8CC140098816941F0A8
:10179000006181610098416D0322C1F20002114392
:1017A000416502B07047000082B001908DF80310CF
:1017B00002B070470000000082B044F2C050C2F294
:1017C000024001904FF40070ADF80200BDF8020035
:1017D00001990968486202B07047000000000000EB
:1017E00084B044F2C052C2F2024203928DF80B0060
:1017F000ADF8081003980068406A00909DF80B004F
:1018000048B9FFE7BDF80800009941EA0040039994
:101810000968886233E003980068806A009901EBE8
:101820001040009000208DF80700FFE79DF80700AA
:101830009DF80B100139884213D2FFE70398006826
:101840009DF8071000EB8100D0F80401009901EB2E
:1018500010400090FFE79DF8070001308DF8070069
:10186000E4E7BDF80800009941EA004003990968DF
:101870009DF80B2001EB8201C1F80001FFE704B0E5
:10188000704700000000000080B582B00190019810
:10189000D0F8E0040AF038FA02B080BD0000000081
:1018A00080B582B001908DF80310019AD2F8E0045F
:1018B0009DF8031001EBC10302EB8302126A0AF0E8
:1018C00083F802B080BD000080B582B001908DF831
:1018D0000310019AD2F8E0049DF8031001EBC10354
:1018E00002EB8302D2F860220AF03AF902B080BD1E
:1018F00080B582B001900198D0F8E0040AF008FAAF
:1019000002B080BD0000000080B584B003908DF867
:101910000B109DF80B00000600280CD5FFE703987C
:101920009DF80B1001F00F0101EBC10100EB8100EC
:10193000143001900CE003989DF80B1001F00F019A
:1019400001EBC10100EB810000F515700190FFE78C
:101950000398006801990BF063FF8DF80A0004B04A
:1019600080BD00000000000080B584B002908DF8BA
:1019700007109DF80700000600280FD5FFE7029822
:101980009DF8071001F00F0101EBC10100EB810090
:10199000143000900098012141700FE002989DF8EA
:1019A000071001F00F0101EBC10100EB810000F510
:1019B00015700090009800214170FFE79DF8070026
:1019C00000F00F0000990870FFE7029890F8940467
:1019D000012804D1FFE702208DF80F0014E00298DF
:1019E000012180F89414FFE7FFE70298006800994E
:1019F0000BF006FAFFE70298002180F89414FFE745
:101A000000208DF80F00FFE79DF80F0004B080BDA7
:101A100080B584B002908DF807109DF8070000F0A3
:101A20000F0002990979884204D9FFE701208DF857
:101A30000F004DE09DF80700000600280FD5FFE7D6
:101A400002989DF8071001F00F0101EBC10100EBB6
:101A50008100143000900098012141700FE002983D
:101A60009DF8071001F00F0101EBC10100EB8100AF
:101A700000F515700090009800214170FFE7009874
:101A8000002181709DF8070000F00F000099087098
:101A9000FFE7029890F89404012804D1FFE70220A0
:101AA0008DF80F0014E00298012180F89414FFE7EC
:101AB000FFE70298006800990BF012FCFFE702981C
:101AC000002180F89414FFE700208DF80F00FFE755
:101AD0009DF80F0004B080BD82B001908DF8031016
:101AE00001989DF8031001F00F0101EBC10100EB1B
:101AF0008100D0F8680202B07047000000000000CA
:101B000080B586B004908DF80F10ADF80C208DF8DC
:101B10000B3000208DF80A009DF80F000006002809
:101B20000FD5FFE704989DF80F1001F00F0101EBAE
:101B3000C10100EB81001430019001980121417036
:101B40000FE004989DF80F1001F00F0101EBC101A7
:101B500000EB810000F515700190019800214170A3
:101B6000FFE79DF80F0000F00F0001990870BDF825
:101B70000C006FF3DF20019988609DF80B0001993C
:101B800008710198407820B1FFE7019801784183FE
:101B9000FFE79DF80B00022804D1FFE70198002120
:101BA0004171FFE7FFE7049890F89404012804D1FD
:101BB000FFE702208DF8170015E00498012180F856
:101BC0009414FFE7FFE70498006801990AF0D0FF3A
:101BD000FFE70498002180F89414FFE79DF80A00BD
:101BE0008DF81700FFE79DF8170006B080BD0000D4
:101BF00080B586B005908DF8131003920293059876
:101C00009DF8131001F00F0101EBC10100EB810001
:101C100000F51570019003980199C8600298019928
:101C20000861019800214161019841709DF81300FD
:101C300000F00F000199087005988079012804D1FF
:101C4000FFE703980199C861FFE7059A10680199B9
:101C500092790BF0E9FB06B080BD000000000000A7
:101C600080B584B002908DF807109DF8070000F051
:101C70000F0002990979884204D9FFE701208DF805
:101C80000F0058E09DF80700000600280FD5FFE779
:101C900002989DF8071001F00F0101EBC10100EB64
:101CA0008100143000900098012141700DE00298ED
:101CB0009DF8071001EBC10100EB810000F51570E4
:101CC0000090009800214170FFE700980121817089
:101CD0009DF8070000F00F0000990870FFE70298D8
:101CE00090F89404012804D1FFE702208DF80F003A
:101CF00021E00298012180F89414FFE7FFE70298A1
:101D0000006800990BF03CFB9DF80700000740B904
:101D1000FFE7029A1068917902F29C420BF090FA68
:101D2000FFE7FFE70298002180F89414FFE7002006
:101D30008DF80F00FFE79DF80F0004B080BD000094
:101D400080B586B005908DF8131003920293059824
:101D50009DF8131001F00F0101EBC10100EB8100B0
:101D60001430019003980199C860029801990861A4
:101D70000198002141610198012141709DF81300F3
:101D800000F00F000199087005988079012804D1AE
:101D9000FFE703980199C861FFE7059A1068019968
:101DA00092790BF041FB06B080BD000000000000FE
:101DB00010B58AB044F2C050C2F2024009900998AE
:101DC0000068089008980790099800680BF0BCFE1E
:101DD000002840F04384FFE7099800680BF024FFD7
:101DE00010B9FFE700F03ABC0798D0F80808C0F334
:101DF0000D200999C1F8D404099800680BF014FF6C
:101E00008007002807D5FFE709980068416901F0BD
:101E100002014161FFE7099800680BF005FFC00669
:101E200000285FD5FFE709980068816921F010015B
:101E300081610898006A00900998009901F00F01EB
:101E400001EBC10100EB810000F5157006900098D0
:101E500000F4F0100221B1EB504F21D1FFE7BDF8A3
:101E6000000047F6F071084219D0FFE7089806997C
:101E7000C968009AC2F30A120BF0E6FE009847F612
:101E8000F0710840069AD36803EB1010D0600098F8
:101E9000084006994A6902EB10104861FFE71AE012
:101EA000009800F4F0100621B1EB504F11D1FFE77C
:101EB0000898099901F29C4108220BF0C5FE009890
:101EC00047F6F071084006994A6902EB1010486124
:101ED00000E0FFE7FFE709980068816941F0100121
:101EE0008161FFE7099800680BF09EFE000300285F
:101EF00040F1A680FFE700200290099800680BF0EF
:101F00003FFE0490FFE70498002800F09880FFE768
:101F10009DF81000C007002800F08A80FFE70998AC
:101F200000689DF808100BF067FE03909DF80C0008
:101F3000C00760B1FFE70798029900EB411001214B
:101F4000C0F8081B0998029906F07EFDFFE79DF88E
:101F50000C00000700280CD5FFE70798029900EB5A
:101F600041100821C0F8081B0998029906F028FDC5
:101F7000FFE79DF80C00C006002808D5FFE707988A
:101F8000029900EB41101021C0F8081BFFE79DF8F3
:101F90000C00800700282DD5FFE70898406900064F
:101FA000002808D5FFE70798D0F8041841F48061AD
:101FB000C0F80418FFE70998029901EBC10100EB92
:101FC000810000F5157006900698C078012809D1A7
:101FD000FFE706980021C17009989DF8081000F0ED
:101FE0004FFBFFE70798029900EB41100221C0F870
:101FF000081BFFE79DF80C008006002808D5FFE7C6
:102000000798029900EB41102021C0F8081BFFE758
:102010009DF80D008006002809D5FFE70798029972
:1020200000EB41104FF40051C0F8081BFFE7FFE739
:1020300002980130029004984008049063E7FFE79B
:10204000099800680BF0F0FD4003002840F1C780BC
:10205000FFE7099800680BF07FFD049000200290D4
:10206000FFE70498002800F0B980FFE79DF8100012
:10207000C007002800F0AB80FFE7099800689DF8D2
:1020800008100BF091FD03909DF80C00C00700288C
:102090003FD0FFE7029800F00F00012101FA00F0A5
:1020A00001900198079AD2F8343823EA0000C2F868
:1020B00034080798029A00EB4210C0F808190998F2
:1020C000807901281FD1FFE70998029901EBC1012E
:1020D00000EB8100C169026A11440162029888B96B
:1020E000FFE70998029901EBC10100EB8100406A0A
:1020F00040B9FFE70999086801F29C4201210BF001
:102100009FF8FFE7FFE709989DF80810FFF7C8FB65
:10211000FFE79DF80C000007002808D5FFE70798A7
:10212000029900EB41100821C0F80819FFE79DF85B
:102130000C00C006002808D5FFE70798029900EBBD
:1021400041101021C0F80819FFE79DF80C00400667
:10215000002808D5FFE70798029900EB41104021BD
:10216000C0F80819FFE79DF80C008007002822D569
:10217000FFE7089802990BF07FFC0998029901EBA0
:10218000C10100EB8100143006900698C078012848
:1021900009D1FFE706980021C17009989DF8081041
:1021A00000F05EFAFFE70798029900EB4110022168
:1021B000C0F80819FFE79DF80C000006002805D5B7
:1021C000FFE70998029906F023FDFFE7FFE7029871
:1021D0000130029004984008049042E7FFE7099814
:1021E00000680BF021FDC00F08B3FFE70798D0F897
:1021F000041821F00101C0F80418099890F8CC04E3
:10220000012809D1FFE70998002180F8CC1409982A
:102210000021FFF7C9FA03E0099800F031FCFFE75D
:1022200009980068416901F000414161FFE70998A0
:1022300000680BF0F9FC0005002811D5FFE70798AE
:10224000D0F80808C00720B1FFE7099800F0ACFCFF
:10225000FFE709980068416901F400614161FFE707
:10226000099800680BF0E0FC0001002821D5FFE789
:1022700009980068416901F000614161099890F88E
:10228000CC0488B9FFE70998012180F8CC1409989B
:102290000068406DC0F383000999C1F8D004099823
:1022A0000121FFF781FA03E0099800F07DFCFFE7C8
:1022B000FFE7099800680BF0B7FCC004002840F164
:1022C0008680FFE70798D0F8041821F00101C0F8D4
:1022D00004180998006810210BF0CEFB002005902F
:1022E000FFE7059809990979884231D2FFE70798F5
:1022F000059900EB41104FF67F31C0F80819079897
:10230000059A00EB4210D0F8002922F40012C0F820
:1023100000290798059A00EB4210C0F8081B07989F
:10232000059900EB4110D0F8001B21F40011C0F812
:10233000001B0798059900EB4110D0F8001B41F0F5
:102340000061C0F8001BFFE7059801300590C8E761
:102350000798D0F81C1841F00111C0F81C18099812
:10236000C07B78B1FFE70798D0F8841841F00B01E3
:10237000C0F884180798D0F8441841F00B01C0F851
:1023800044180FE00798D0F8141842F22B021143BA
:10239000C0F814180798D0F8101841F00B01C0F8D5
:1023A0001018FFE70798D0F8001821F4FE61C0F874
:1023B0000018099A1068917902F29C420AF040FFD5
:1023C00009980068416901F480514161FFE709986B
:1023D00000680BF029FC800400281ED5FFE709984F
:1023E00000680AF035FC099800680BF085FB099934
:1023F000C8710998046802F007FE01460998C2797D
:1024000020460BF011FD099800F012FB09980068B6
:10241000416901F400514161FFE7099800680BF040
:1024200003FC000700280AD5FFE7099800F034FBF9
:1024300009980068416901F008014161FFE70998C6
:1024400000680BF0F1FB0006002834D5FFE7089880
:10245000816921F08001816101200290FFE70298EB
:1024600009990979884225D2FFE70998029901EB79
:10247000C10100EB810090F85702012815D1FFE758
:102480000798029900EB4110D0F8001B41F0006161
:10249000C0F8001B0798029900EB4110D0F8001B10
:1024A00041F08041C0F8001BFFE7FFE702980130D0
:1024B0000290D4E7FFE7099800680BF0B5FBC00273
:1024C00000283CD5FFE701200290FFE70298099918
:1024D000097988422CD2FFE70798029900EB411056
:1024E000D0F8000900900998029901EBC10100EBB6
:1024F0008100007E012816D1FFE79DF80300000649
:10250000002810D5FFE70998029901EBC10100EB03
:1025100081000121C17509989DF8081041F08001E2
:10252000FFF7F2F9FFE7FFE7029801300290CDE7ED
:1025300009980068416901F480114161FFE7099839
:1025400000680BF071FB8002002857D5FFE70120DF
:102550000290FFE7029809990979884246D2FFE77D
:102560000798029900EB4110D0F8000B00900998F1
:10257000029901EBC10100EB810090F8580201289B
:102580002FD1FFE79DF803000006002829D5FFE7BB
:10259000009800F480300999D1F8D41401F00101B9
:1025A000B1EB104F1DD1FFE70998029901EBC10172
:1025B00000EB8100012180F857120898816941F0F1
:1025C00080018161089840690006002808D4FFE76F
:1025D0000798D0F8041841F40071C0F8041806E018
:1025E000FFE7FFE7029801300290B3E7FFE70998A1
:1025F0000068416901F400114161FFE70998006832
:102600000BF012FB400000280AD5FFE70998FFF7FE
:102610003BF909980068416901F080414161FFE799
:10262000099800680BF000FB4007002815D5FFE76C
:1026300009980068406800909DF800004007002855
:1026400004D5FFE70998FFF753F9FFE700980999C8
:1026500009684A6810434860FFE7FFE70AB010BD09
:1026600080B582B001908DF803100198D0F8E00495
:102670009DF8031009F0E4FB02B080BD00000000EB
:1026800080B582B001908DF803100198D0F8E00475
:102690009DF8031009F00CFC02B080BD00000000A2
:1026A00080B58CB044F2C050C2F202400A900A9841
:1026B00020B9FFE701208DF82F000BE10A9890F870
:1026C000950440B9FFE70A98002180F894140A980D
:1026D00000F006F9FFE70A98032180F895140A989C
:1026E00000680AF0A1FD0A9908680A7C8DF820208C
:1026F0004A688B68C9680791069305920599069AFE
:10270000079BDDF820C0CDF800C00AF0B9FA40B14F
:10271000FFE70A98022180F8951401208DF82F0018
:10272000D8E00A9800680BF0EBFA40B1FFE70A988E
:10273000022180F8951401208DF82F00CAE00020B6
:102740008DF82700FFE79DF827000A99097988424C
:1027500041DAFFE70A989DF8271001EBC10100EB71
:102760008100012141759DF827000A9900EBC00204
:1027700001EB820108759DF827000A9900EBC00261
:1027800001EB8201C8850A989DF8271001EBC10171
:1027900000EB8100002101760A989DF8272002EBCA
:1027A000C20200EB8200C1610A989DF8272002EB6B
:1027B000C20200EB820001620A989DF8272002EB1A
:1027C000C20200EB82004162FFE79DF82700013062
:1027D0008DF82700B7E700208DF82700FFE79DF868
:1027E00027000A99097988423EDAFFE70A989DF89E
:1027F000271001EBC10100EB8100002180F8551288
:102800009DF827000A9A00EBC00302EB830282F8CE
:1028100054020A989DF8272002EBC20200EB8200C6
:1028200080F858120A989DF8272002EBC20200EBAC
:102830008200C0F85C120A989DF8272002EBC202C1
:1028400000EB8200C0F860120A989DF8272002EB86
:10285000C20200EB8200C0F86412FFE79DF8270077
:1028600001308DF82700BAE70A9908680A7C8DF8CC
:1028700010204A688B68C9680391029301920199FC
:10288000029A039BDDF810C0CDF800C00AF084FB6B
:1028900040B1FFE70A98022180F8951401208DF8D5
:1028A0002F0017E00A98002141740A98012180F84E
:1028B00095140A98007B012804D1FFE70A98FEF7D7
:1028C00057FFFFE70A9800680AF052FB00208DF8D6
:1028D0002F00FFE79DF82F000CB080BD0000000026
:1028E000F0B5BDB03C9000203B903A9039903890C4
:1028F000379006A8C021FDF7B4FD3C980068002180
:10290000C4F20401884240F09080FFE70020079065
:102910004FF4802006904FF48010289006A801F014
:1029200023F910B1FFE7FDF79BFE00F0ADF9FFE7DB
:1029300044F2E040C5F60200016841F00401016084
:10294000006800F0040005900598FFE7FFE744F2F7
:10295000E040C5F60200016841F001010160006835
:1029600000F0010004900498FFE7FFE744F2E04024
:10297000C5F60200016841F002010160006800F044
:10298000020003900398FFE70D2037900225389549
:10299000002639963A950A273B9740F60000C5F67F
:1029A000020037AC2146FEF777F82820379038959B
:1029B00039963A953B970020C5F602002146FEF76E
:1029C0006BF843F623403790389539963A953B9704
:1029D00040F20040C5F602002146FEF75DF8FFE731
:1029E00044F2D840C5F60200016841F00071016070
:1029F000006800F0007002900298FFE7FFE744F2E1
:102A0000D840C5F60200016841F0806101600068AD
:102A100000F0806001900198FFE74D200121FEF752
:102A200083FE4D20FEF774FEFFE73DB0F0BD0000D1
:102A300080B582B0019001208DF803000198C07923
:102A400020B9FFE700208DF803000BE00198C07962
:102A5000022804D1FFE701208DF8030001E0FDF713
:102A6000FFFDFFE70198D0F8E0049DF8031009F09E
:102A700023FB0198D0F8E00409F09EFA02B080BD73
:102A800080B582B001900198D0F8E00409F0E0FA36
:102A900002B080BD0000000080B582B001900198B6
:102AA000D0F8E00409F0E8FA02B080BD00000000B0
:102AB00080B584B002908DF80710FFE7029890F877
:102AC0009404012804D1FFE702208DF80F0019E0DB
:102AD0000298012180F89414FFE7FFE79DF80700B2
:102AE00002994874029800689DF807100BF070F97D
:102AF000FFE70298002180F89414FFE700208DF88A
:102B00000F00FFE79DF80F0004B080BD000000003B
:102B100080B582B001900199D1F8E00401F29C41A6
:102B200009F0F2FA02B080BD80B584B0029002983C
:102B300000680190FFE7029890F89404012804D1FE
:102B4000FFE702208DF80F0028E00298012180F8AD
:102B50009414FFE7FFE70198C068400600280BD5F2
:102B6000FFE70298407B012806D1FFE70198816BBF
:102B700041F480318163FFE7029800680AF034FF76
:102B8000029800680AF0E0F9FFE70298002180F857
:102B90009414FFE700208DF80F00FFE79DF80F0069
:102BA00004B080BD0000000080B582B001900198A3
:102BB000D0F8E00409F028FB01980068D0F8001E66
:102BC00041F00101C0F8001E0198C07A48B1FFE74A
:102BD0004EF61050CEF20000016841F0060101608F
:102BE000FFE702B080BD000080B584B002200290F3
:102BF00044F60C00C5F60200006800F00400002155
:102C0000B1EB900F13D1FFE744F60C00C5F60200BC
:102C1000006800F007000299884204D0FFE7012015
:102C20008DF80F002EE000208DF80F002AE044F60A
:102C30000C00C5F60200016821F00701029A114359
:102C40000160FEF73DF90190FFE744F60400C5F688
:102C50000200006800F400500021B1EB503F0DD19C
:102C6000FFE7FEF72DF90199401AB0F57A7F04D9F4
:102C7000FFE701208DF80F0004E0E6E700208DF863
:102C80000F00FFE704B080BD44F60C00C5F602005B
:102C9000016841F080710160704700000000000091
:102CA00080B584B040F2F030C2F2004003900020C2
:102CB0008DF80B00FEF704F90190039890F841009D
:102CC0008007002867D5FFE7FFE70398002180F819
:102CD0004010FFE70398006800684007002817D5F8
:102CE000FFE703980068016821F004010160039880
:102CF000C06BFEF765F98DF80B009DF80B0030B145
:102D0000FFE70398416C41F004014164FFE7FFE7EE
:102D100003980068806800F020000021B1EB501F8C
:102D200033D0FFE703980068016841F002010160B9
:102D30000398019B816C00910221012206F020FA88
:102D40008DF80B009DF80B0078B9FFE70398006839
:102D50000221C1600398019B816C00912021002217
:102D600006F00EFA8DF80B00FFE79DF80B0058B93E
:102D7000FFE703980068416921F0406141610398D1
:102D8000012180F84110FFE704E00398012180F859
:102D90004110FFE7FFE704B080BD00000000000025
:102DA00081B0009001B0704780B582B001900020E2
:102DB0008DF80300019890F841008007002855D550
:102DC000FFE7FFE70198002180F84010FFE7019836
:102DD000082180F8411001980068016821F4F81179
:102DE0000160019800680068400700281CD5FFE7D3
:102DF00001980068016821F0040101600198C06B2E
:102E000049F22901C0F6000181650198C06BFEF707
:102E10003FF940B1FFE70198012180F84110019886
:102E2000FFF7BEFFFFE720E001980068806800F030
:102E300020000021B1EB501F11D0FFE7019800687E
:102E40000221C16001980068016841F4003101600D
:102E500001980068016841F00201016004E00198F6
:102E6000012180F84110FFE7FFE7FFE702B080BDD6
:102E700081B0009001B0704780B588B040F2F03169
:102E8000C2F200410691059041F288300490FEF7AD
:102E900017F802900598806908B1FFE7FFE70598E9
:102EA000C06908B1FFE7FFE70598006A08B1FFE7CE
:102EB000FFE7FFE7069890F84000012804D1FFE7FC
:102EC00002208DF81F0056E00698012180F840107E
:102ED000FFE7FFE7069890F8410001283CD1FFE7A3
:102EE0000698002141640698022180F84110069856
:102EF000029B049900912021002206F041F98DF8EF
:102F00000F009DF80F0030BBFFE70698059905F00C
:102F100013FF0598406AC0B9FFE70698029B049921
:102F200000910221012206F02BF98DF80F009DF887
:102F30000F0048B9FFE7069800680221C1600698B3
:102F4000012180F84110FFE704E00698012180F894
:102F50004110FFE7FFE703E002208DF80F00FFE7D5
:102F6000FFE70698002180F84010FFE79DF80F006A
:102F70008DF81F00FFE79DF81F0008B080BD00001E
:102F800080B582B040F2F030C2F20040009000986C
:102F900020B9FFE701208DF8070011E000980068D4
:102FA000016821F001010160009800F061FA0098C9
:102FB00000214164009880F841108DF80710FFE768
:102FC00002B080BD0000000081B0009001B07047E9
:102FD00081B0009001B0704781B040F2F030C2F291
:102FE00000400090009890F8410001B07047000048
:102FF00080B584B040F2F030C2F2004003900398F4
:1030000000688068019003980068006800909DF84F
:103010000400400700286AD5FFE79DF8020040073A
:10302000002864D5FFE703980068203002900398D9
:1030300090F84100122827D1FFE7FFE703980068C6
:10304000806800F004000021B1EB900F1AD0FFE778
:103050000398C06A70B1FFE70398406A007802994C
:1030600008700398416A013141620398C16A0139CD
:10307000C16206E003980068016821F480210160C4
:1030800001E0DBE7FFE72EE0039890F841002228FB
:1030900027D1FFE7FFE703980068806800F004008D
:1030A0000021B1EB900F1AD0FFE70398806B70B14D
:1030B000FFE7029800780399096B08700398016B89
:1030C000013101630398816B0139816306E0039844
:1030D0000068016821F48021016001E0DBE7FFE77F
:1030E00000E0FFE7FFE70398FFF772FF3AE19DF882
:1030F00004008007002840F1AA80FFE79DF8020045
:103100008007002840F1A380FFE7039800680221B0
:10311000C16003980068016821F4E0210160039810
:1031200090F8410012281DD1FFE70398006800685D
:10313000400700280ED5FFE703980068016821F0DA
:10314000040101600398C06B0068C16821F00101AF
:10315000C160FFE70398012180F84110039800F057
:10316000FFFC73E0039890F8410022283FD1FFE76D
:10317000039800680068400700280ED5FFE7039811
:103180000068016821F0040101600398C06B0068C9
:10319000C16821F00101C16021E00398006820307E
:1031A0000290FFE703980068806810F47C5F14D0F9
:1031B000FFE70398806B70B1FFE7029800780399EE
:1031C000096B08700398016B013101630398816BEF
:1031D0000139816300E001E0E4E7FFE7FFE70398DE
:1031E000012180F84110039800F05EFB2DE0039868
:1031F00090F84100022808D1FFE70398012180F8E8
:1032000041100398FFF734FE1EE0039890F8410048
:10321000082817D1FFE703980068416921F0406151
:1032200041610398012180F841100398406C20B956
:10323000FFE70398FFF7B4FD03E00398FFF7C4FE30
:10324000FFE700E0FFE7FFE7FFE7FFE789E09DF822
:1032500004000007002820D5FFE79DF802000007C2
:1032600000281AD5FFE7039800680821C160039879
:1032700000680068400200280BD5FFE7039800684B
:10328000016821F4102101600398012180F84110A8
:10329000FFE7039800F05CFC62E09DF80400C007C3
:1032A000002846D0FFE79DF80200C007002840D064
:1032B000FFE7039800680121C16003980068016876
:1032C00021F4702101600398416C41F002014164D6
:1032D0000398006800684007002821D5FFE703989D
:1032E0000068016821F0040101600398C06B49F295
:1032F0002901C0F6000181650398C06BFDF7C8FE87
:1033000068B1FFE70398416C41F004014164039800
:10331000012180F841100398FFF756FEFFE707E010
:103320000398012180F841100398FFF74DFEFFE755
:1033300015E09DF80400C00600280ED5FFE79DF8B3
:103340000200C006002808D5FFE703980068102196
:10335000C160039800F000FC00E0FFE7FFE7FFE733
:10336000FFE7FFE704B080BD80B586B040F2F030E3
:10337000C2F200400490FDF7A3FD0290049820B92A
:10338000FFE701208DF817006CE00498006A4028E0
:1033900001D0FFE7FFE7049890F8410038B9FFE754
:1033A000049800F099F8049800F0C6FBFFE7049831
:1033B0000068006820F4F85004990A6889686FF082
:1033C000FF0303EB0121084310600498029B816C0A
:1033D00000912021002205F0D3FE8DF80F009DF80A
:1033E0000F00D0BBFFE70498006800684FF62F710C
:1033F000C0F2FF0100EA010C0499D1F800E04B682B
:10340000C868CA6940EA03601043096A084340EA91
:103410000C00CEF800000498006840684FF6FE01EA
:10342000CFF6E07100EA010C04990A680B6948695B
:10343000896940EA0340084340EA0C005060049860
:103440000068016841F001010160049800214164B5
:103450000498012180F84110FFE79DF80F008DF8D6
:103460001700FFE79DF8170006B080BD00000000C0
:1034700080B582B001900198006845F20001C5F264
:103480000021884225D1FFE744F2D440C5F602006E
:10349000016821F48041016041F20000C5F602009C
:1034A0000421FDF7E9F940F20040C5F6020044218D
:1034B000FDF7E2F940F60040C5F602004FF4605116
:1034C000FDF7DAF90198C06BFDF772FEFEF714F90B
:1034D000FFE702B080BD00002DE9F043BBB03A9099
:1034E00000203990389037903690359004A8C0214C
:1034F000FCF7B7FF3A98006845F20001C5F20021D9
:10350000884240F0BD80FFE7002005904FF0007139
:103510000491179004A800F027FB10B1FFE7FDF716
:103520009FF8FFE744F2D440C5F60200016841F479
:1035300080410160006800F4804003900398FFE739
:10354000FFE744F2E040C5F60200016841F01001D7
:103550000160006800F0100002900298FFE7FFE7AA
:1035600044F2E040C5F60200016841F0020101604A
:10357000006800F0020001900198FFE7FFE744F2C5
:10358000E040C5F60200016841F0080101600068F2
:1035900000F0080000900098FFE74FF00408CDF815
:1035A000D480022636960027379738960925399514
:1035B00041F20000C5F6020035AC2146FDF76CFA79
:1035C000CDF8D480369637973896399540F2004931
:1035D000C5F6020948462146FDF75EFA4FF46050F1
:1035E0003590369637973896399540F60040C5F6AF
:1035F00002002146FDF750FA402035903696379765
:1036000038960A20399048462146FDF745FA40F29F
:103610003C40C2F200404021C5F200210160162169
:1036200041608760C021C160076147618761C761F0
:1036300007624FF000714162C0F82880C7620763DB
:1036400047638763FDF764FF10B1FFE7FDF708F8F4
:10365000FDF74AFD10B1FFE7FDF702F8FFE73A98E2
:1036600040F23C41C2F20041C1633A980864FFE76E
:103670005C200021FEF758F85C20FEF749F8FFE7D0
:103680003BB0BDE8F083000080B586B040F2F03179
:10369000C2F200410491039000208DF80B000498C1
:1036A000006880690190049800680069013000900A
:1036B000FFE7049890F84000012804D1FFE70220BA
:1036C0008DF81700EAE00498012180F84010FFE728
:1036D000FFE7049890F84100012840F0D080FFE710
:1036E0000498002141640398002800F0B880FFE7A7
:1036F0000098049988630498222180F84110049866
:1037000000680321C1600498806B049948630398A2
:10371000049908630498C06B49F2B901C0F600012E
:1037200041640498C06B49F28101C0F60001416513
:103730000498C06B002181650498C06B0068006923
:1037400040F2033188430499C96B09680861049801
:10375000C06B006A68B9FFE70498C06B0068006935
:1037600040F60C41884308300499C96B0968086128
:1037700032E00498C06B006A40280ED1FFE704983D
:10378000C06B0068006940F60C41884300F5816019
:103790000499C96B096808611DE00498C06B006A50
:1037A00080280ED1FFE70498C06B0068006940F6DE
:1037B0000C41884300F608000499C96B0968086148
:1037C00008E00498416C41F00401416401208DF847
:1037D0000B00FFE7FFE7FFE704980068406901215D
:1037E00061F39B600499096848610198049909682C
:1037F000886104980068016841F480310160049890
:103800000068016841F004010160049B1968D86BED
:103810002031039A5B6BFDF7CFFE38B9FFE7FFE776
:103820000498002180F84010FFE717E00498006832
:10383000016821F00401016001208DF80B0004995A
:103840004A6C42F004024A64049981F84100FFE79F
:103850000498002180F84010FFE7FFE70EE004988D
:10386000416C41F00801416401208DF80B00FFE735
:103870000498002180F84010FFE7FFE709E00220EC
:103880008DF80B00FFE70498002180F84010FFE757
:10389000FFE79DF80B008DF81700FFE79DF8170074
:1038A00006B080BD0000000089B0089040F2406082
:1038B000C2F200400079042840F0C780FFE747F2D9
:1038C0007E10C2F2014044F6A061415CADF81E10CA
:1038D00041F60521C2F2014109788DF81D1040F230
:1038E0004061C2F20041098DADF81A1044F69561AD
:1038F000415AADF8181044F69D61405C8DF81700F0
:103900009DF8170068B9FFE740F27760C2F2004007
:103910001330049001208DF80F0002208DF80E0066
:103920000CE045F2AC40C2F200401330049000209D
:103930008DF80F0003208DF80E00FFE70020ADF892
:103940000C00FFE7BDF80C00BDF81E10884271DACC
:10395000FFE700208DF80B00FFE79DF80B0007281C
:1039600061DCFFE79DF81D009DF80B10C840C00703
:1039700008B9FFE751E0BDF80C0000EB00104CF275
:103980001F01C2F2014108449DF80B1030F81100EC
:10399000010A41EA0020ADF80800BDF808006528DA
:1039A00003DBFFE700200190FFE7BDF81800BDF83A
:1039B0001A10013988420BDAFFE7BDF808000499B4
:1039C000BDF81820531CADF8183021F8120023E080
:1039D000BDF81800BDF81A10013988421BD1FFE765
:1039E000BDF808000499BDF8182021F81200002045
:1039F000ADF818009DF80F0047F27E11C2F20141A8
:103A000044F69D6288549DF80E0040F24061C2F277
:103A1000004148710FE0FFE7FFE79DF80B00013020
:103A20008DF80B0099E7FFE7BDF80C000130ADF809
:103A30000C0087E7FFE7BDF8180047F27E11C2F2DD
:103A4000014144F69562885274E040F24060C2F24F
:103A50000040007902286CD0FFE740F24060C2F2DB
:103A600000400079032864D0FFE747F27E10C2F2DD
:103A7000014044F695610022425244F69D61425451
:103A8000ADF80220FFE7BDF80200072826DCFFE7BB
:103A9000BDF8020047F27E11C2F2014131F8102058
:103AA0004FF4FA6300FB031041F21303CB5A00EB0F
:103AB000430041F21503C252BDF8020031F8102054
:103AC00001EB4020897C00EB4100A0F81320FFE7C8
:103AD000BDF802000130ADF80200D4E747F27E10D5
:103AE000C2F20140817C0131817441F2130C30F843
:103AF0000C20013220F80C2030F80C2044F6D3536F
:103B0000C1F26203A2FB033189094FF47A7301FB0E
:103B1000132120F80C10008A42F6C471C2F202414F
:103B2000087040F24060C2F200400168013101605B
:103B3000FFE7FFE709B0704782B0019041F288309B
:103B4000009000980199886402B07047000000005E
:103B500081B0009001B0704781B0009001B0704713
:103B600081B0009001B0704780B586B0049000200D
:103B70008DF807008DF806000498C078000700282B
:103B800044D5FFE70498806E60B1FFE7B0F5801F71
:103B900011D0FFE7B0F5001F15D0FFE7B0F5401FCB
:103BA00019D019E044F22C40C5F60200016841F436
:103BB0000031016014E004980830022105F024FB74
:103BC0008DF807000CE004982830022105F000FC75
:103BD0008DF8070004E003E001208DF80700FFE7FF
:103BE0009DF8070060B9FFE744F25040C5F60200B7
:103BF000016821F44011049A926E1143016004E0BF
:103C00009DF807008DF80600FFE7FFE7049840786D
:103C1000C00700283ED0FFE70498806D04281FD815
:103C2000DFE800F0030C141C1D0044F22C40C5F624
:103C30000200016841F40031016015E00498083089
:103C4000002105F0E1FA8DF807000DE00498283016
:103C5000002105F0BDFB8DF8070005E004E003E05E
:103C600001208DF80700FFE79DF8070060B9FFE726
:103C700044F25040C5F60200016821F00701049AA1
:103C8000926D1143016004E09DF807008DF8060075
:103C9000FFE7FFE7049840788007002846D5FFE754
:103CA0000498C06D68B1FFE7402813D0FFE7802873
:103CB00018D0FFE7C0281DD0FFE7B0F5807F1AD0ED
:103CC0001AE044F22C40C5F60200016841F40031CC
:103CD000016015E004980830002105F095FA8DF890
:103CE00007000DE004982830002105F071FB8DF8E5
:103CF000070005E004E003E001208DF80700FFE77E
:103D00009DF8070060B9FFE744F25040C5F6020095
:103D1000016821F4E071049AD26D1143016004E05E
:103D20009DF807008DF80600FFE7FFE7049840784C
:103D3000400700284BD5FFE70498D0F8A80080B1D1
:103D4000FFE7B0F5001F15D0FFE7B0F5800F19D0E1
:103D5000FFE7B0F5C00F1DD0FFE7B0F5000F1AD098
:103D60001AE044F22C40C5F60200016841F400312B
:103D7000016015E004980830002105F045FA8DF83F
:103D800007000DE004982830002105F021FB8DF894
:103D9000070005E004E003E001208DF80700FFE7DD
:103DA0009DF8070068B9FFE744F25840C5F60200E5
:103DB000016821F46001049AD2F8A820114301603F
:103DC00004E09DF807008DF80600FFE7FFE7049880
:103DD0004078000700284BD5FFE70498D0F8AC00E6
:103DE00080B1FFE7B0F1807F15D0FFE7B0F1007F31
:103DF00019D0FFE7B0F1407F1DD0FFE7B0F1806F31
:103E00001AD01AE044F22C40C5F60200016841F4D1
:103E10000031016015E004980830002105F0F4F944
:103E20008DF807000DE004982830002105F0D0FA45
:103E30008DF8070005E004E003E001208DF807009D
:103E4000FFE79DF8070068B9FFE744F25840C5F660
:103E50000200016821F0E061049AD2F8AC2011431D
:103E6000016004E09DF807008DF80600FFE7FFE71A
:103E70000498C078800700283AD5FFE70498C06C02
:103E8000D8B1FFE7102806D0FFE720280CD0FFE7C5
:103E9000302811D012E044F22C40C5F6020001682F
:103EA00041F4003101600DE004980830022105F072
:103EB000ABF98DF8070005E004E003E001208DF880
:103EC0000700FFE79DF8070060B9FFE744F24C40A8
:103ED000C5F60200016821F03001049AD26C11434A
:103EE000016004E09DF807008DF80600FFE7FFE79A
:103EF00004984078C006002849D5FFE70498006E72
:103F000080B1FFE7B0F5805F15D0FFE7B0F5005F47
:103F100019D0FFE7B0F5405F1DD0FFE7B0F5804F47
:103F20001AD01AE044F22C40C5F60200016841F4B0
:103F30000031016015E004980830002105F064F9B3
:103F40008DF807000DE004982830002105F040FAB4
:103F50008DF8070005E004E003E001208DF807007C
:103F6000FFE79DF8070060B9FFE744F25040C5F64F
:103F70000200016821F4E041049A126E11430160CD
:103F800004E09DF807008DF80600FFE7FFE70498BE
:103F900040788006002846D5FFE70498406EA0B11F
:103FA000FFE7B0F5803F11D0FFE7B0F5003F15D037
:103FB000FFE7B0F5403F19D0FFE7B0F5802F16D0EE
:103FC000FFE7B0F5A02F13D013E016E004980830F7
:103FD000012105F019F98DF807000EE0049828304A
:103FE000012105F0F5F98DF8070006E005E004E091
:103FF00003E001208DF80700FFE79DF8070060B996
:10400000FFE744F25040C5F60200016821F4E021C8
:10401000049A526E1143016004E09DF807008DF888
:104020000600FFE7FFE7049840784006002848D5DF
:10403000FFE70498D0F8B000A0B1FFE7B0F1805FCF
:1040400011D0FFE7B0F1005F15D0FFE7B0F1405F9E
:1040500019D0FFE7B0F1804F16D0FFE7B0F1A04FC5
:1040600013D013E016E004980830012105F0CCF8D5
:104070008DF807000EE004982830012105F0A8F91A
:104080008DF8070006E005E004E003E001208DF86C
:104090000700FFE79DF8070068B9FFE744F25840C2
:1040A000C5F60200016821F0E041049AD2F8B02080
:1040B0001143016004E09DF807008DF80600FFE75A
:1040C000FFE7049840780006002838D5FFE70498F9
:1040D000006FC8B1FFE7B0F1805F04D0FFE7B0F137
:1040E000005F09D011E044F22C40C5F602000168DF
:1040F00041F4003101600CE004980830012105F022
:1041000083F88DF8070004E003E001208DF8070034
:10411000FFE79DF8070060B9FFE744F25040C5F69D
:104120000200016821F04051049A126F11430160AE
:1041300004E09DF807008DF80600FFE7FFE704980C
:10414000C078C007002835D0FFE70498806C0328AA
:1041500016D8DFE800F014020B1344F22C40C5F629
:104160000200016841F4003101600DE0049808305C
:10417000022105F049F88DF8070005E004E003E0AE
:1041800001208DF80700FFE79DF8070060B9FFE701
:1041900044F24C40C5F60200016821F00301049A84
:1041A000926C1143016004E09DF807008DF8060051
:1041B000FFE7FFE7049880784006002840F1B680CA
:1041C000FFE744F60000C5F60200016841F4807183
:1041D0000160FCF775FE0290FFE744F60000C5F6AB
:1041E00002000068C00500280CD4FFE7FCF768FE59
:1041F0000299401A652804D3FFE703208DF80700D1
:1042000001E0EAE7FFE79DF80700002840F088801A
:10421000FFE744F27040C5F60200006800F4407009
:104220000499D1F8B41001F44071884213D0FFE72B
:1042300044F27040C5F60200016821F44071039118
:10424000016841F480310160016821F4803101602E
:1042500003990160FFE70498D0F8B400B0F5807FBF
:1042600020D1FFE7FCF72CFE0290FFE744F27040FC
:10427000C5F60200006800F002000021B1EB500F0B
:104280000ED1FFE7FCF71CFE0299401A41F289317A
:10429000884204D3FFE703208DF8070001E0E5E73B
:1042A000FFE7FFE79DF80700A0BBFFE7FFE70498E3
:1042B000D0F8B40000F44070B0F5407F13D1FFE7B0
:1042C00044F21040C5F60200016821F47C51049AC2
:1042D000D2F8B4204FF6F043C0F6FF731A4041EA1B
:1042E0001211016008E044F21040C5F602000168B6
:1042F00021F47C510160FFE70498D0F8B4006FF31B
:104300001F3044F27041C5F602010A68104308608C
:10431000FFE704E09DF807008DF80600FFE704E0E2
:104320009DF807008DF80600FFE7FFE70498006896
:10433000C007002800F04A80FFE70498C06F2828D3
:104340002AD8DFE800F01529292929292929162941
:104350002929292929291E292929292929292629DB
:1043600029292929292927292929292929292800E9
:1043700016E004980830012104F046FF8DF807008C
:104380000EE004982830012105F022F88DF807008E
:1043900006E005E004E003E001208DF80700FFE7F8
:1043A0009DF8070060B9FFE744F25440C5F60200EB
:1043B000016821F03801049AD26F1143016004E0D2
:1043C0009DF807008DF80600FFE7FFE704980078E6
:1043D0008007002837D5FFE70498806F052818D894
:1043E000DFE800F003040C14151616E004980830FA
:1043F000012104F009FF8DF807000EE00498283031
:10440000012104F0E5FF8DF8070006E005E004E077
:1044100003E001208DF80700FFE79DF8070060B971
:10442000FFE744F25440C5F60200016821F007019D
:10443000049A926F1143016004E09DF807008DF823
:104440000600FFE7FFE7049800784007002839D509
:10445000FFE70498D0F89400052818D8DFE800F0AA
:1044600003040C14151616E004980830012104F01A
:10447000CBFE8DF807000EE004982830012104F0EF
:10448000A7FF8DF8070006E005E004E003E0012047
:104490008DF80700FFE79DF8070068B9FFE744F2D1
:1044A0005840C5F60200016821F00701049AD2F8CD
:1044B00094201143016004E09DF807008DF8060088
:1044C000FFE7FFE7049800788006002848D5FFE75B
:1044D0000498D0F89000A0B1FFE7B0F1805F11D050
:1044E000FFE7B0F1005F15D0FFE7B0F1405F19D0F2
:1044F000FFE7B0F1804F16D0FFE7B0F1A04F13D027
:1045000013E016E004980830002104F07DFE8DF8D9
:1045100007000EE004982830022104F059FF8DF8BE
:10452000070006E005E004E003E001208DF8070045
:10453000FFE79DF8070068B9FFE744F25440C5F66D
:104540000200016821F0E041049AD2F89020114362
:10455000016004E09DF807008DF80600FFE7FFE723
:10456000049800784006002848D5FFE70498D0F862
:104570009C00A0B1FFE7B0F5806F11D0FFE7B0F568
:10458000006F15D0FFE7B0F5406F19D0FFE7B0F529
:10459000805F16D0FFE7B0F5A05F13D013E016E000
:1045A00004980830002104F02FFE8DF807000EE07B
:1045B00004982830022104F00BFF8DF8070006E074
:1045C00005E004E003E001208DF80700FFE79DF817
:1045D000070068B9FFE744F25840C5F602000168D9
:1045E00021F4E051049AD2F89C201143016004E0C8
:1045F0009DF807008DF80600FFE7FFE704980078B4
:104600000006002848D5FFE70498D0F8A000A0B124
:10461000FFE7B0F5005F11D0FFE7B0F5804F15D090
:10462000FFE7B0F5C04F19D0FFE7B0F5004F16D047
:10463000FFE7B0F5204F13D013E016E004980830E0
:10464000002104F0E1FD8DF807000EE00498283009
:10465000022104F0BDFE8DF8070006E005E004E04D
:1046600003E001208DF80700FFE79DF8070068B917
:10467000FFE744F25840C5F60200016821F46041AA
:10468000049AD2F8A0201143016004E09DF80700CD
:104690008DF80600FFE7FFE7049800780007002880
:1046A00020D5FFE70498D0F88400B0F5805F0CD1E6
:1046B000FFE704982830022104F08AFE20B1FFE7CA
:1046C00001208DF80600FFE7FFE744F25440C5F6ED
:1046D0000200016821F44051049AD2F88420114369
:1046E0000160FFE704980078C006002820D5FFE7A6
:1046F0000498D0F89800B0F5807F0CD1FFE70498BB
:104700002830022104F064FE20B1FFE701208DF87B
:104710000600FFE7FFE744F25840C5F602000168D3
:1047200021F44071049AD2F8982011430160FFE708
:10473000049880780007002839D5FFE70498D0F85E
:10474000A40040B1FFE7B0F5803F0CD0FFE7B0F523
:10475000003F10D010E004980830002104F054FD10
:104760008DF807000CE004982830022104F030FE98
:104770008DF8070004E003E001208DF80700FFE753
:104780009DF8070068B9FFE744F25840C5F60200FB
:10479000016821F44031049AD2F8A4201143016049
:1047A00004E09DF807008DF80600FFE7FFE7049896
:1047B0008078400700283CD5FFE70498D0F88800AF
:1047C000B0F5801F08D0FFE7B0F5001F0DD0FFE760
:1047D000B0F5401F11D011E044F22C40C5F60200A4
:1047E000016841F4003101600CE004982830012197
:1047F00004F0EEFD8DF8070004E003E001208DF8E1
:104800000700FFE79DF8070068B9FFE744F254404E
:10481000C5F60200016821F44011049AD2F88820FC
:104820001143016004E09DF807008DF80600FFE7E2
:10483000FFE704988078C00798B3FFE70498006DFD
:1048400020B1FFE7B0F5803F09D010E044F22C40E2
:10485000C5F60200016841F4003101600BE00498E4
:104860000830022104F0D0FC8DF8070003E001209D
:104870008DF80700FFE79DF8070060B9FFE744F2F5
:104880004C40C5F60200016821F48031049A126D93
:104890001143016004E09DF807008DF80600FFE772
:1048A000FFE70498C078800600280CD5FFE704983D
:1048B0002830022104F08CFD20B1FFE701208DF8A3
:1048C0000600FFE7FFE7049880788007002838D5C6
:1048D000FFE70498D0F88000B8B1FFE7B0F5807F1B
:1048E00008D0FFE7B0F5007F0DD0FFE7B0F5407FBF
:1048F0000AD00BE044F22C40C5F60200016841F4F6
:104900000031016006E005E004E003E001208DF8DD
:104910000700FFE79DF8070068B9FFE744F254403D
:10492000C5F60200016821F44071049AD2F8802093
:104930001143016004E09DF807008DF80600FFE7D1
:10494000FFE704988078C00600280CD5FFE744F202
:104950005040C5F60200016821F00041049A526FF0
:1049600011430160FFE70498C078C00600280DD508
:10497000FFE744F21040C5F60200016821F48041CF
:10498000049AD2F8B82011430160FFE704988078B8
:10499000800600280CD5FFE744F25040C5F602001F
:1049A000016821F08071049AD26E11430160FFE723
:1049B0000498C0784006002811D5FFE7FFE744F2CD
:1049C0001040C5F60200016821F40041016004991D
:1049D000D1F8BC10026811430160FFE7FFE70498BB
:1049E000C078000600280CD5FFE744F24C40C5F61D
:1049F0000200016821F04051049A526D1143016098
:104A0000FFE704988078000600280DD5FFE744F200
:104A10005440C5F60200016821F44001049AD2F81E
:104A20008C2011430160FFE704980079C00790B122
:104A3000FFE704980830002104F0E6FB8DF807003A
:104A40009DF8070008B9FFE704E09DF807008DF81E
:104A50000600FFE7FFE7049800798007002812D5D9
:104A6000FFE704980830012104F0CEFB8DF8070021
:104A70009DF8070008B9FFE704E09DF807008DF8EE
:104A80000600FFE7FFE7049800794007002812D5E9
:104A9000FFE704980830022104F0B6FB8DF8070008
:104AA0009DF8070008B9FFE704E09DF807008DF8BE
:104AB0000600FFE7FFE7049800790007002812D5F9
:104AC000FFE704982830002104F082FC8DF80700ED
:104AD0009DF8070008B9FFE704E09DF807008DF88E
:104AE0000600FFE7FFE704980079C006002812D50A
:104AF000FFE704982830012104F06AFC8DF80700D4
:104B00009DF8070008B9FFE704E09DF807008DF85D
:104B10000600FFE7FFE7049800798006002812D519
:104B2000FFE704982830022104F052FC8DF80700BA
:104B30009DF8070008B9FFE704E09DF807008DF82D
:104B40000600FFE7FFE79DF8060020B9FFE7002019
:104B50008DF8170003E001208DF81700FFE79DF89E
:104B6000170006B080BD000080B586B00490042018
:104B70000390049820B9FFE701208DF817003CE26C
:104B8000039842F20001C5F20021096801F00F010B
:104B9000884216D9FFE742F20000C5F20020016802
:104BA00021F00F01039A11430160006800F00F002B
:104BB0000399884204D0FFE701208DF817001CE21A
:104BC000FFE7049800784007002819D5FFE704980C
:104BD000006944F21841C5F60201096801F070014C
:104BE00088420CD9FFE744F21840C5F6020001687C
:104BF00021F07001049A126911430160FFE7FFE799
:104C0000049800780007002819D5FFE70498406948
:104C100044F21C41C5F60201096801F070018842A6
:104C20000CD9FFE744F21C40C5F60200016821F0F0
:104C30007001049A526911430160FFE7FFE704988D
:104C40000078C006002819D5FFE70498806944F26F
:104C50001C41C5F60201096801F4E06188420CD9E3
:104C6000FFE744F21C40C5F60200016821F4E06150
:104C7000049A926911430160FFE7FFE70498007806
:104C80008006002819D5FFE70498C06944F2204146
:104C9000C5F60201096801F0700188420CD9FFE7EE
:104CA00044F22040C5F60200016821F07001049A28
:104CB000D26911430160FFE7FFE70498007880079D
:104CC000002819D5FFE70498C06844F21841C5F6DA
:104CD0000201096801F00F0188420CD9FFE744F294
:104CE0001840C5F60200016821F00F01049AD2684D
:104CF00011430160FFE7FFE704980078C007002830
:104D000000F08C80FFE744F21840C5F6020001680D
:104D100021F47061049A926811430160049840681C
:104D2000022811D1FFE744F20040C5F602000068F6
:104D300000F400300021B1EB504F04D1FFE7012017
:104D40008DF8170059E13EE004984068032811D11E
:104D5000FFE744F20040C5F60200006800F0007072
:104D60000021B1EB506F04D1FFE701208DF817004F
:104D700043E127E004984068012811D1FFE744F29D
:104D80000040C5F60200006800F480700021B1EB1D
:104D9000102F04D1FFE701208DF817002DE110E05E
:104DA00044F20040C5F60200006800F00400002153
:104DB000B1EB900F04D1FFE701208DF817001CE143
:104DC000FFE7FFE7FFE744F21040C5F60200016885
:104DD00021F00701049A526811430160FCF770F852
:104DE0000190FFE744F21040C5F60200006800F0B1
:104DF000380004994968B0EBC10F0ED0FFE7FCF70B
:104E00005FF80199401A41F28931884204D3FFE7E3
:104E100003208DF81700F0E0E4E7FFE7049800783E
:104E20008007002819D5FFE70498C06844F21841AC
:104E3000C5F60201096801F00F0188420CD2FFE7B4
:104E400044F21840C5F60200016821F00F01049AEF
:104E5000D26811430160FFE7FFE7039842F20001C7
:104E6000C5F20021096801F00F01884216D2FFE760
:104E700042F20000C5F20020016821F00F01039A00
:104E800011430160006800F00F000399884204D0CC
:104E9000FFE701208DF81700AFE0FFE704980078E6
:104EA0004007002819D5FFE70498006944F218412B
:104EB000C5F60201096801F0700188420CD2FFE7D3
:104EC00044F21840C5F60200016821F07001049A0E
:104ED000126911430160FFE7FFE7049800780007BB
:104EE000002819D5FFE70498406944F21C41C5F633
:104EF0000201096801F0700188420CD2FFE744F218
:104F00001C40C5F60200016821F07001049A526944
:104F100011430160FFE7FFE704980078C00600280E
:104F200019D5FFE70498806944F21C41C5F60201D7
:104F3000096801F4E06188420CD2FFE744F21C40AA
:104F4000C5F60200016821F4E061049A92691143F8
:104F50000160FFE7FFE7049800788006002819D574
:104F6000FFE70498C06944F22041C5F602010968D0
:104F700001F0700188420CD2FFE744F22040C5F6F0
:104F80000200016821F07001049AD26911430160A6
:104F9000FFE7FFE700F064F844F21841C5F60201AC
:104FA0000A68C2F3032244F2AA73C0F601039A5CB2
:104FB00002F01F02D04000900098096801F00F0134
:104FC000595C01F01F01C84040F20801C2F20041E3
:104FD0000860009840F20401C2F20041086040F20B
:104FE0000000C2F200400068FBF7B6FF8DF80B002E
:104FF0009DF80B008DF81700FFE79DF8170006B02D
:1050000080BD00000000000080B582B000F028F8EC
:1050100044F21841C5F602010A68C2F3032244F2C1
:10502000AA73C0F601039A5C02F01F02D0400190FF
:105030000198096801F00F01595C01F01F01C84097
:1050400040F20801C2F200410860019840F20402F7
:10505000C2F200421060086802B080BD000000008B
:1050600088B044F21040C5F60200006800F0380035
:10507000182800F26781DFE810F01900650165016A
:10508000650165016501650165013B00650165011B
:105090006501650165016501650141006501650105
:1050A00065016501650165016501470044F2004045
:1050B000C5F60200006800F020000021B1EB501F8F
:1050C0000FD0FFE744F20040C5F602000068C0F3CD
:1050D000C10049F20001C0F2D03121FA00F0009085
:1050E00005E049F20000C0F2D0300090FFE72FE168
:1050F00040F60010C0F23D00009029E147F6400064
:10510000C0F27D10009023E144F22840C5F6020071
:10511000016801F0030106910068C0F305100590D5
:1051200044F22C40C5F60200006800F00100049033
:10513000049844F23441C5F60201096889B2C908ED
:10514000484300EE100AB8EE400A8DED020A0598B9
:10515000002800F0F380FFE7069838B1FFE7012848
:1051600069D0FFE7022800F08A80ACE044F20040FA
:10517000C5F60200006800F020000021B1EB501FCE
:1051800034D0FFE744F20040C5F602000068C0F3E7
:10519000C10049F20001C0F2D03121FA00F00390C1
:1051A0009DED030AB8EE400A9DED051AB8EE411ACE
:1051B00080EE010A44F23040C5F6020000686FF349
:1051C0005F2001EE100AB8EE411A9DED022A9FED14
:1051D000633A82EE032A31EE021AB7EE002A31EE6C
:1051E000021A20EE010A8DED010A23E09DED050A69
:1051F000B8EE400A9FED5B1A81EE000A44F230409F
:10520000C5F6020000686FF35F2001EE100AB8EEE9
:10521000411A9DED022A9FED513A82EE032A31EEAA
:10522000021AB7EE002A31EE021A20EE010A8DEDC5
:10523000010AFFE76BE09DED050AB8EE400A9FED1D
:10524000481A81EE000A44F23040C5F602000068B8
:105250006FF35F2001EE100AB8EE411A9DED022AAD
:105260009FED3E3A82EE032A31EE021AB7EE002A93
:1052700031EE021A20EE010A8DED010A47E09DEDA4
:10528000050AB8EE400A9FED341A81EE000A44F296
:105290003040C5F6020000686FF35F2001EE100A8F
:1052A000B8EE411A9DED022A9FED2C3A82EE032AB8
:1052B00031EE021AB7EE002A31EE021A20EE010A90
:1052C0008DED010A23E09DED050AB8EE400A9FED41
:1052D000241A81EE000A44F23040C5F6020000684C
:1052E0006FF35F2001EE100AB8EE411A9DED022A1D
:1052F0009FED1A3A82EE032A31EE021AB7EE002A27
:1053000031EE021A20EE010A8DED010AFFE744F2A8
:105310003040C5F60200006880B2012101EB502048
:1053200007909DED010A9DED071AB8EE411A80EE37
:10533000010ABCEEC00A8DED000A02E000200090D8
:10534000FFE705E040F60010C0F23D000090FFE7E7
:10535000009808B0704700BF20BCBE4B000000465C
:105360000024744A0024744C80B58CB00A900A98CA
:1053700028B9FFE701208DF82F0000F09CBD0A98A6
:105380000078C007002800F0B980FFE744F2104021
:10539000C5F60200006800F03800069044F228408C
:1053A000C5F6020000680590069810280AD0FFE7AD
:1053B000069818281CD1FFE7059800F00300022882
:1053C00016D1FFE744F20040C5F60200006800F481
:1053D00000300021B1EB504F09D0FFE70A98406838
:1053E00028B9FFE701208DF82F0000F064BD84E0AC
:1053F000FFE70A984068B0F5803F09D1FFE744F223
:105400000040C5F60200016841F48031016032E0DD
:105410000A98406868B9FFE744F20040C5F6020008
:10542000016821F480310160016821F4802101606C
:1054300020E00A984068B0F5A02F0DD1FFE744F2B4
:105440000040C5F60200016841F480210160016856
:1054500041F4803101600CE044F20040C5F60200E6
:10546000016821F480310160016821F4802101602C
:10547000FFE7FFE7FFE7FFE70A984068F0B1FFE7C3
:10548000FBF71EFD0990FFE744F20040C5F602005D
:10549000006800F400300021B1EB504F0DD1FFE760
:1054A000FBF70EFD0999401A652805D3FFE7032095
:1054B0008DF82F0000F0FFBCE6E71DE0FBF700FDD4
:1054C0000990FFE744F20040C5F60200006800F4CE
:1054D00000300021B1EB504F0DD0FFE7FBF7F0FC9F
:1054E0000999401A652805D3FFE703208DF82F009E
:1054F00000F0E1BCE6E7FFE7FFE7FFE70A98007886
:105500008007002840F11681FFE744F21040C5F6FD
:105510000200006800F03800049044F22840C5F60C
:10552000020000680390049850B1FFE7049818281F
:1055300078D1FFE79DF80C008007002872D1FFE7C3
:1055400044F20040C5F60200006800F004000021AB
:10555000B1EB900F09D0FFE70A98C06828B9FFE7C0
:1055600001208DF82F0000F0A6BC44F20040C5F6E3
:105570000200016821F019010A9AD2681143016002
:10558000FBF79EFC0990FFE744F20040C5F60200DD
:10559000006800F004000021B1EB900F0DD1FFE78F
:1055A000FBF78EFC0999401A032805D3FFE7032077
:1055B0008DF82F0000F07FBCE6E7FFE7FBF778FCF3
:1055C00041F2030188421DD8FFE70A98006940288C
:1055D0000AD1FFE744F20440C5F602000168202228
:1055E00062F3113101600CE044F20440C5F60200A0
:1055F000016821F47C310A9A126941EA02310160A2
:10560000FFE70CE044F20440C5F60200016821F017
:10561000FE410A9A126941EA02610160FFE7FFE771
:10562000FFE786E00A98C06800285CD0FFE744F2F4
:105630000040C5F60200016821F019010A9AD268FB
:1056400011430160FBF73CFC0990FFE744F2004086
:10565000C5F60200006800F004000021B1EB900FD5
:105660000DD1FFE7FBF72CFC0999401A032805D35D
:10567000FFE703208DF82F0000F01DBCE6E7FFE7F1
:10568000FBF716FC41F2030188421DD8FFE70A9898
:10569000006940280AD1FFE744F20440C5F6020041
:1056A0000168202262F3113101600CE044F20440F1
:1056B000C5F60200016821F47C310A9A126941EAB8
:1056C00002310160FFE70CE044F20440C5F602003D
:1056D000016821F0FE410A9A126941EA0261016003
:1056E000FFE7FFE724E044F20040C5F6020001684E
:1056F00021F001010160FBF7E3FB0990FFE744F2B1
:105700000040C5F60200006800F004000021B1EB83
:10571000900F0CD0FFE7FBF7D3FB0999401A032841
:1057200004D3FFE703208DF82F00C4E3E7E7FFE78A
:10573000FFE7FFE70A980078C006002840F1EB80F9
:10574000FFE744F21040C5F60200006800F03800A0
:10575000029044F22840C5F60200006801900298C9
:1057600008280AD0FFE70298182850D1FFE70198CF
:1057700000F0030001284AD1FFE744F20040C5F6DB
:105780000200006800F480700021B1EB102F09D0F6
:10579000FFE70A98C069802804D0FFE701208DF850
:1057A0002F0088E3FFE7FBF783FB41F20301884208
:1057B0001DD8FFE70A98006A20280AD1FFE744F2C3
:1057C0000440C5F602000168102262F39E61016088
:1057D0000CE044F20440C5F60200016821F0F841F3
:1057E0000A9A126A41EA82610160FFE70CE044F222
:1057F0000C40C5F60200016821F07C510A9A126A39
:1058000041EA02610160FFE7FFE7FFE782E00A98F3
:10581000C069002858D0FFE744F20040C5F60200F6
:10582000016841F080010160FBF74AFB0990FFE746
:1058300044F20040C5F60200006800F480700021C8
:10584000B1EB102F0CD1FFE7FBF73AFB0999401A97
:10585000032804D3FFE703208DF82F002BE3E7E7AD
:10586000FFE7FBF725FB41F2030188421DD8FFE764
:105870000A98006A20280AD1FFE744F20440C5F6DE
:1058800002000168102262F39E6101600CE044F2A4
:105890000440C5F60200016821F0F8410A9A126A34
:1058A00041EA82610160FFE70CE044F20C40C5F67A
:1058B0000200016821F07C510A9A126A41EA0261F1
:1058C0000160FFE7FFE724E044F20040C5F6020074
:1058D000016821F080010160FBF7F2FA0990FFE70F
:1058E00044F20040C5F60200006800F48070002118
:1058F000B1EB102F0CD0FFE7FBF7E2FA0999401A41
:10590000032804D3FFE703208DF82F00D3E2E7E755
:10591000FFE7FFE7FFE70A980078000700284FD568
:10592000FFE70A98406928B3FFE744F27440C5F6E0
:105930000200016841F001010160FBF7C1FA099022
:10594000FFE744F27440C5F60200006800F0020070
:105950000021B1EB500F0CD1FFE7FBF7B1FA099929
:10596000401A032804D3FFE703208DF82F00A2E29A
:10597000E7E724E044F27440C5F60200016821F034
:1059800001010160FBF79CFA0990FFE744F27440C3
:10599000C5F60200006800F002000021B1EB500FD4
:1059A0000CD0FFE7FBF78CFA0999401A032804D3BF
:1059B000FFE703208DF82F007DE2E7E7FFE7FFE731
:1059C0000A980078800600284FD5FFE70A9880697A
:1059D00028B3FFE744F20040C5F60200016841F435
:1059E00080510160FBF76CFA0990FFE744F2004038
:1059F000C5F60200006800F400500021B1EB503FF2
:105A00000CD1FFE7FBF75CFA0999401A032804D38D
:105A1000FFE703208DF82F004DE2E7E724E044F292
:105A20000040C5F60200016821F480510160FBF7D7
:105A300047FA0990FFE744F20040C5F6020000680B
:105A400000F400500021B1EB503F0CD0FFE7FBF712
:105A500037FA0999401A032804D3FFE703208DF889
:105A60002F0028E2E7E7FFE7FFE70A980078400702
:105A7000002840F1A780FFE744F60000C5F60200C9
:105A8000016841F480710160FBF71AFA0990FFE7A1
:105A900044F60000C5F602000068C00500280CD4DA
:105AA000FFE7FBF70DFA0999401A652804D3FFE7D1
:105AB00003208DF82F00FEE1EAE7FFE70A988068EF
:105AC000012809D1FFE744F27040C5F602000168E1
:105AD00041F00101016031E00A98806868B9FFE790
