:020000040800F2
:10000000787E0224AD0200089D670008BB0300084B
:10001000BB030008D9040008EDA50008000000009B
:100020000000000000000000000000007B710008DC
:10003000E905000800000000070300088F710008B0
:10004000CB020008CB020008CB020008CB0200085C
:10005000CB020008CB020008CB020008CB0200084C
:10006000CB020008CB020008CB020008CB0200083C
:10007000CB020008CB020008CB020008CB0200082C
:10008000CB020008CB020008CB020008CB0200081C
:10009000CB020008CB020008CB020008CB0200080C
:1000A000C9750008F9750008E9750008D9750008D8
:1000B000297600085976000889760008CB020008E6
:1000C000CB020008CB020008CB020008CB020008DC
:1000D000CB020008CB020008CB020008CB020008CC
:1000E000CB020008CB02000800000000E9760008FF
:1000F000297700081177000801770008CB02000873
:10010000CB020008CB020008B9760008CB02000839
:10011000CB020008CB020008CB020008CB0200088B
:10012000CB020008CB020008CB020008CB0200087B
:10013000CB020008CB020008CB020008CB0200086B
:1001400000000000000000000000000000000000AF
:10015000CB020008CB020008CB020008CB0200084B
:10016000CB020008CB020008CB020008CB0200083B
:10017000CB020008A1670008CB02000800000000C5
:10018000CB020008CB020008CB020008CB0200081B
:10019000CB020008CB020008CB020008CB0200080B
:1001A000CB020008CB020008CB020008CB020008FB
:1001B000716D0008CB020008CB020008CB020008DA
:1001C000CB020008CB020008CB020008CB020008DB
:1001D000CB020008CB020008CB020008CB020008CB
:1001E000CB020008CB020008CB020008CB020008BB
:1001F000CB020008CB020008CB020008CB020008AB
:10020000CB020008CB020008CB020008CB0200089A
:10021000CB020008CB020008CB020008CB0200088A
:10022000CB020008CB0200085D5E00080000000061
:10023000CB020008CB02000800000000CB0200083F
:10024000CB020008CB020008CB020008CB0200085A
:10025000CB020008CB020008CB020008CB0200084A
:10026000CB020008CB020008CB020008CB0200083A
:10027000CB020008CB020008CB02000800000000FF
:10028000CB020008CB020008CB02000800000000EF
:1002900000000000CB020008DFF80CD000F0DAF814
:1002A00000480047CF040008787E022407488047B2
:1002B0000748804707480047FEE7FEE7FEE7FEE7FE
:1002C000FEE7FEE7FEE7FEE7FEE7FEE7F1050008D2
:1002D000A174000899020008EFF3108072B670470D
:1002E00080F310887047434A1368012B04D04FF005
:1002F00001031360404A1060404A116040484FF0CB
:10030000805101607047EFF3108272B6394801687E
:1003100051B34FF0000101603748016891B1EFF32C
:1003200009811EF0100F08BF21ED108B21E9F00F9D
:100330004FF000041EF0100F08BF012441F8044DD7
:10034000006801602D490968096808C9B1E8F00F23
:10035000002B18BFB1EC108B81F309884EF0100E02
:10036000002B18BF2EF0100E82F310884EF0040EF2
:10037000704722490860EFF3148222F0040282F3EE
:1003800014881D494FF0000008601A494FF0010021
:1003900008601C484FF47F01D0F8002041EA0201B8
:1003A000016017484FF080510160174800680068ED
:1003B00080F3088861B662B670471EF0040F0CBF68
:1003C000EFF30880EFF3098020E9F00F40F804ED27
:1003D00040F804ED1EF0040F0CBF80F3088880F392
:1003E000098800B50DF066FF5DF804EB4EF0040ED1
:1003F000704700004C0100244401002448010024FF
:1004000004ED00E020ED00E008ED00E040EA01032B
:100410009B0703D009E008C9121F08C0042AFAD2BA
:1004200003E011F8013B00F8013B521EF9D270477E
:10043000D2B201E000F8012B491EFBD27047002226
:10044000F6E710B513460A4604461946FFF7F0FFD3
:10045000204610BD064C074D06E0E06840F0010361
:1004600094E8070098471034AC42F6D3FFF718FF22
:1004700080F90008A0F9000870B58C1810F8015B2D
:1004800015F0070301D110F8013B2A1106D110F82D
:10049000012B03E010F8016B01F8016B5B1EF9D131
:1004A0002B0705D40023521E0DD401F8013BFAE7B7
:1004B00010F8013BCB1A921C03E013F8015B01F822
:1004C000015B521EF9D5A142D8D3002070BD10B5F2
:1004D0000EF044FE002010BD00BFFEE70346042BD3
:1004E00015D007DC7BB1012B0ED0022B0DD0032BD6
:1004F00012D10BE0202B0BD0212B0AD0222B09D0BC
:10050000232B09D107E008E007E006E005E004E05E
:1005100003E002E001E000E000BF00BF0020704700
:100520000020704710B500220449054807F007FE77
:100530000449034807F0F3FD002010BDDCF001245E
:100540000BE40124DCE8012470B505460C4629467D
:10055000124807F0E4FD114807F0A8FD1049B1F872
:1005600003102068084440F69801884210D20C49D4
:10057000B1F80330491D581829462268FFF746FF95
:100580000748B0F80300218808440549A1F8030092
:100590000120034988700020088070BD0BE401240D
:1005A0001A1C012410B503460C460021084610BD54
:1005B0002DE9F04104460D4600260A48D0F8B072F5
:1005C000D7F8120210B10120BDE8F0812A46214679
:1005D000044807F0B4FD034807F068FE06463046BD
:1005E000F2E700000BE40124704772B600BFFEE79B
:1005F0000748006840F002000549086000BF044851
:100600000838006800F400500028F8D07047000057
:100610000C48025810B5044622464FF400410248E7
:1006200000F06CFA10BD0000000002582DE9F04106
:1006300005460C461646270A04F0FF080020FFF77F
:10064000E9FF03200A4908700846477080F80280D5
:1006500064230322074804F01AFC64233246294627
:10066000044804F037FA0120FFF7D4FFBDE8F08119
:10067000EBE30124A00300242DE9F04105460C46DC
:100680001646270A04F0FF080020FFF7C3FF0620E4
:100690001B490870642301221A4804F0F8FB01206A
:1006A000FFF7B8FF50200BF04BFC0020FFF7B2FF24
:1006B0000220134908700846477080F802806423BE
:1006C0000322104804F0E3FB6423324629460D4818
:1006D00004F0DDFB0120FFF79DFF50200BF030FC04
:1006E0000020FFF797FF04200549087064230122CA
:1006F000044804F0CCFB0120FFF78CFFBDE8F0813B
:10070000EBE30124A003002470B50A480468001D2F
:100710000568001D0668344454B108220649204685
:1007200005F07DFB042204491031284605F077FBD3
:1007300070BD000000E8F11F8A00002470B5044677
:1007400000F0E8F906462546681C10B10448007818
:10075000054400BF00F0DEF9801BA842FAD370BD4B
:1007600038000024F0B50C460021504B98E00126DB
:100770008E4006EA0402002A7ED04D4E8F0856F8BD
:1007800027508E07370F0F26BE403540494EB042E6
:1007900001D100262DE0484EB04201D1012628E0CB
:1007A000464EB04201D1022623E0454EB04201D16F
:1007B00003261EE0434EB04201D1042619E0424E0A
:1007C000B04201D1052614E0404EB04201D10626C8
:1007D0000FE03F4EB04201D107260AE03D4EB04245
:1007E00001D1082605E03C4EB04201D1092600E0C7
:1007F0000A268F073F0FBE40AE421FD11E689643A8
:100800001E605E6896435E604FF0B0467668964321
:100810004FF0B0477E603E46366896433E608E0796
:10082000370F0F2606FA07F5214E8F0856F8276076
:10083000AE431F4F4FEA910C47F82C6006684FEA11
:10084000410C032707FA0CF73E430660CF0800F17E
:10085000200656F827604F074FEAD76C0F2707FA94
:100860000CF7BE434FEAD10C00F1200747F82C608B
:10087000C6684FEA410C00E011E0032707FA0CF7C5
:10088000BE43C660476801268E40B743476086680E
:100890004FEA410C032707FA0CF7BE438660491C58
:1008A00024FA01F6002E7FF462AFF0BD80000058FC
:1008B00008040058000002580004025800080258BA
:1008C000000C025800100258001402580018025878
:1008D000001C02580020025800240258F8B50246B5
:1008E0000023744DDFE001279F400E6806EA0704ED
:1008F000002C7AD00E7906F00306012E04D00E7972
:1009000006F00306022E13D190685F000326BE4056
:10091000B0435F00CE68BE4030439060506801260F
:100920009E40B0430E79C6F300169E40304350609F
:100930000E7906F00306032E07D10E7906F00306A2
:10094000032E0CD18E68012E09D0D0685F000326DB
:10095000BE40B0435F008E68BE403043D0600E7929
:1009600006F00306022E13D1DF0802F1200656F826
:1009700027005E07F70E0F26BE40B0435F07FF0E4D
:100980000E69BE403043DF0802F1200646F827001A
:1009900010685F000326BE40B0430E7906F00306E0
:1009A0005F00BE40304310604E6806F44036002EB3
:1009B00078D000BF404E366846F002063E4F3E609B
:1009C0003E46366806F00206009600BF00BF3B4E6A
:1009D0009F0856F827009E07370F0F26BE40B043EA
:1009E000374EB24202D100262EE05BE0354EB242D5
:1009F00001D1012628E0344EB24201D1022623E083
:100A0000324EB24201D103261EE0314EB24201D134
:100A1000042619E02F4EB24201D1052614E02E4ED5
:100A2000B24201D106260FE02C4EB24201D1072678
:100A30000AE02B4EB24201D1082605E0294EB2420F
:100A400001D1092600E00A269F073F0FBE40304330
:100A50001A4E9F0846F827004FF0B0463068A04372
:100A60004E6806F4801606B120434FF0B046306061
:100A70007068A0434E6806F4001606B120434FF09C
:100A8000B04670606868A0434E6806F4003606B150
:100A9000204368602868A0434E6806F4803606B19B
:100AA000204328605B1C0E68DE40002E7FF41BAFE5
:100AB000F8BD000080000058F444025808040058B3
:100AC000000002580004025800080258000C0258A6
:100AD000001002580014025800180258001C025856
:100AE000002002580024025810B5426921EA02038E
:100AF00002EA010443EA0443836110BD0AB1816143
:100B000001E00B048361704701480068000C7047E6
:100B10000010005C014800687047000030000024AD
:100B20000348006803490978084401490860704790
:100B3000300000243800002410B5032000F024FB0E
:100B400003F08EF810490968C1F303210F4A515C84
:100B500001F01F0120FA01F40B48006800F00F00BB
:100B60001146085C00F01F0024FA00F008490860F4
:100B7000084804600F2000F00FF808B1012010BDF4
:100B800000F088FA0020FAE7184402583CF8000800
:100B9000400000243C00002470B504461148007851
:100BA00008B9012070BD0F4800784FF47A71B1FB8D
:100BB000F0F00D490968B1FBF0F5284604F0C1FAE0
:100BC00008B10120EEE7102C07D200222146501E6A
:100BD00000F09CFA0548046001E00120E2E70020F3
:100BE000E0E70000380000243C000024340000242A
:100BF00070B50446FFF78EFF05460CB9012070BDA5
:100C000094F83D00022808D08020A06600BF002094
:100C100084F83C0000BF0120F1E72068C06820F0A4
:100C20003E002168C8602068C06820F0010021688B
:100C3000C86012E0FFF76EFF401B05280DD9A06EBB
:100C400040F04000A06600BF002084F83C0000BFD8
:100C5000032084F83D000120D1E72068C06800F03F
:100C600001000028E6D11F202168486000BF002055
:100C700084F83C0000BF012084F83D000020BEE75E
:100C8000014609B90120704791F83D00022803D0C0
:100C9000802088660120F6E7042081F83D0008687E
:100CA000C06820F001000A68D0600020EBE730B592
:100CB000034600240BB9012030BD00BF93F83C006F
:100CC000012801D10220F7E7012083F83C0000BF92
:100CD00093F83D00012819D11868006900F08040A0
:100CE00090B9186801631868426331B918680069DF
:100CF00020F000401D68286109E01868006940F094
:100D000000401D68286102E0012400E0012400BFCA
:100D1000002083F83C0000BF2046CDE7014609B91A
:100D2000012070470868C06820F001000A68D060A0
:100D300000200A68D0600A6810610A6850610A6879
:100D400090610A68D0610A6810620A6850620A6895
:100D500090620A6810630A6850631F200A68506036
:100D60000020C86508664866886681F83D0000BFB7
:100D700081F83C0000BF00BFD3E70000F8B504468F
:100D800000200090744800684FF41651B0FBF1F653
:100D9000208800F5F860C0F38411012000FA01F703
:100DA0004FF0A4400068384000B9F8BD20680068E2
:100DB00000F00100B8B32068C06800F0020090B3F2
:100DC0002068C06820F002002168C860206885683B
:100DD00005F0800020B9A06E40F00100A06603E09D
:100DE000A06E40F00200A06605F4007018B1A06E7D
:100DF00040F00400A06605F4807018B1A06E40F0C9
:100E00000800A06605F4806018B1A06E40F01000E4
:100E1000A06605F4006018B1A06E40F02000A06646
:100E20000120216848602068006800F0100060B16F
:100E30002068C06800F0200038B1102021684860A8
:100E4000A06C10B12046A16C88472068006800F0B3
:100E5000080060B12068C06800F0100038B10820B8
:100E600021684860E06C10B12046E16C884720683A
:100E7000006800F0040060B12068C06800F008005D
:100E800038B1042021684860206D10B12046216DE2
:100E900088472068006800F0020060B32068C068DE
:100EA00000F0040038B32068C06820F03E002168DC
:100EB000C86094F83D0004280DD100BF002084F8DC
:100EC0003C0000BF012084F83D00A06D10B1204619
:100ED000A16D884769E702202168486000BF0020B3
:100EE00084F83C0000BF012084F83D00606C10B124
:100EF0002046616C8847A06E60B3042084F83D00F2
:100F00002068C06820F001002168C86000BF009818
:100F1000401C0090B04200D905E02068C06800F095
:100F200001000028F3D100BF00BF002084F83C007E
:100F300000BF2068C06800F0010018B1032084F8E9
:100F40003D0002E0012084F83D00606D10B12046B4
:100F5000616D884700BF28E73C00002470B5044657
:100F6000FFF7D8FD05460CB9012070BD00BF002079
:100F700084F83C0000BF022084F83D002068C0686F
:100F800020F001002168C8600BE0FFF7C3FD401BA3
:100F9000052806D94020A066032084F83D000120E2
:100FA000E3E72068C06800F001000028EDD120468A
:100FB00004F05CFF0020E06520666066A06601200A
:100FC00084F83D000020D0E72DE9F84304460D46A3
:100FD00016461F46DDF8208014B90120BDE8F883CD
:100FE00000BF94F83C00012801D10220F6E701205F
:100FF00084F83C0000BF94F83D00012841D1022054
:1010000084F83D000020A0662068C06820F0010040
:101010002168C8603B46324629462046CDF800800C
:1010200004F086FF2068C06840F006002168C860B0
:10103000E06C28B12068C06840F010002168C860EA
:10104000206D28B12068C06840F008002168C860A1
:10105000A06C28B12068C06840F020002168C860FA
:101060002068C06840F001002168C8606068B0F185
:10107000804F0DD12068C06840F480302168C8607E
:1010800006E000BF002084F83C0000BF0220A5E776
:101090000020A3E708B500BF0648006840F0020042
:1010A000044908600846006800F00200009000BF94
:1010B00000BF08BDF444025810B501460846002898
:1010C0000BDB00F01F0301229A40054B440943F853
:1010D0002420BFF34F8FBFF36F8F00BF10BD000000
:1010E00080E100E00146084600280DDB00BF00BF9C
:1010F00000F01F0301229A4043099B0003F1E02303
:10110000C3F8002100BF00BF00BF70472DE9F05FAA
:1011100080460D46164609F06BFA074639462A46C0
:10112000334601F00700C0F1070ABAF1040F02D9F3
:101130004FF0040A01E0C0F1070AD14600F1040AA9
:10114000BAF1070F02D24FF0000A01E0A0F1030A42
:10115000D4464FF0010A0AFA09FAAAF1010A0AEA8A
:10116000020A0AFA0CFA4FF0010B0BFA0CFBABF176
:10117000010B0BEA030B4AEA0B042146404609F037
:101180003FFABDE8F09F000000BF00F00702064BE9
:1011900019684FF6FF031940044B0B4343EA022141
:1011A000014B196000BF70470CED00E00000FA052C
:1011B00001460A680120C1F8D804002081F8CC0457
:1011C000906940F000609061506D024B184350658B
:1011D000002070470300001070470246106841620B
:1011E00000207047F0B5034615461868446A21B9D7
:1011F00044EA05401E68B06219E01868806A04EB92
:101200001044002208E0186800F5827050F82200AF
:1012100004EB1044501CC2B2481E9042F3D844EA7A
:101220000547186800F582704E1E40F826700020B1
:10123000F0BD10B50446D4F8E00407F0D9FC10BDA9
:1012400070B504460D4605EBC50304F1140101EB2E
:101250008301CA682946D4F8E00407F0B6FB70BDE4
:1012600070B504460D4605EBC50304F5157101EB99
:101270008301CA682946D4F8E00407F030FC70BD49
:1012800010B50446D4F8E00407F0B5FC10BD2DE914
:10129000F04104460D4605F08000802808D105F095
:1012A0000F0000EBC00104F1140000EB810607E021
:1012B00005F00F0000EBC00104F5157000EB81068E
:1012C0003146206808F010FF07463846BDE8F08137
:1012D00070B504460E4606F0800080280AD106F05C
:1012E0000F0000EBC00104F1140000EB81050120A8
:1012F000687009E006F00F0000EBC00104F51570FE
:1013000000EB81050020687006F00F00287000BF18
:1013100094F89404012801D1022070BD012084F8C2
:10132000940400BF2946206808F070FA00BF00202E
:1013300084F8940400BF00BFEFE770B504460E4682
:1013400006F00F002179884201D9012070BD06F016
:10135000800080280AD106F00F0000EBC00104F1E4
:10136000140000EB81050120687009E006F00F0011
:1013700000EBC00104F5157000EB810500206870DA
:101380000020A87006F00F00287000BF94F89404A5
:10139000012801D10220D9E7012084F8940400BF7C
:1013A0002946206808F02CFC00BF002084F8940433
:1013B00000BF00BFCAE7024601F00F0000EBC00308
:1013C00002F5157000EB8300406970472DE9F04786
:1013D00005460E4690461F464FF0000906F0800075
:1013E00080280AD106F00F0000EBC00105F11400BF
:1013F00000EB81040120607009E006F00F0000EBB3
:10140000C00105F5157000EB81040020607006F046
:101410000F002070C8F30A00A0602771607808B13F
:1014200020786083022F01D10020607100BF95F801
:101430009404012802D10220BDE8F087012085F83C
:10144000940400BF2146286808F0DEF800BF0020A1
:1014500085F8940400BF4846EEE72DE9F0410546C3
:101460000E461746984606F00F0000EBC00105F542
:10147000157000EB8104E760C4F810800020606103
:10148000607006F00F002070A879012800D1E76194
:10149000AA792146286808F047FC0020BDE8F081C1
:1014A00070B504460D4605F00F002179884201D938
:1014B000012070BD05F0800080280AD105F00F00E2
:1014C00000EBC00104F1140000EB810601207070F4
:1014D00007E005EBC50104F5157000EB810600205F
:1014E00070700120B07005F00F00307000BF94F8EC
:1014F0009404012801D10220DBE7012084F8940440
:1015000000BF3146206808F0C2FB05F00F0028B983
:10151000A17904F29C42206808F03AFB00BF002049
:1015200084F8940400BF00BFC3E72DE9F0410546ED
:101530000E461746984606F00F0000EBC00105F175
:10154000140000EB8104E760C4F8108000206061A3
:101550000120607006F00F002070A879012800D1EA
:10156000E761AA792146286808F0DEFB0020BDE883
:10157000F0812DE9FE4F0446D4F800B05E462068A5
:1015800008F0D8FE002874D1206808F012FF08B9CE
:10159000BDE8FE8F40F608008059C0F30D20C4F866
:1015A000D404206808F005FF00F00200022805D1ED
:1015B0002068406900F0020021684861206808F056
:1015C000F8FE00F01000102845D12068806920F056
:1015D000100021688861DBF8209009F00F0000EB13
:1015E000C00104F5157000EB810AC9F343400228DD
:1015F0001AD147F6F07009EA000030B3C9F30A12B5
:101600005846DAF80C1008F0D9FEC9F30A11DAF8D6
:101610000C000844CAF80C00C9F30A11DAF81400E7
:101620000844CAF8140010E0C9F3434006280CD15E
:10163000082204F29C41584608F0C0FEC9F30A1182
:10164000DAF814000844CAF814002068806940F0F1
:10165000100021688861206808F0ABFE00F40020CB
:10166000B0F5002F7BD10025206808F072FE0290B3
:1016700072E017E3029800F00100002868D0E9B298
:10168000206808F089FE804608F0010048B1012179
:1016900006F5306000EB451081602946204605F0D4
:1016A000B9F808F00800082809D1082106F53060CB
:1016B00000EB451081602946204605F079F808F0D6
:1016C0001000102805D1102106F5306000EB451000
:1016D000816008F00200022824D1DBF8140000F039
:1016E0008000802807D140F60400805940F48061D2
:1016F00040F60400815105EBC50104F5157000EBBF
:10170000810A9AF80300012806D100208AF8030014
:10171000E9B2204600F0D1FA022106F5306000EB74
:101720004510816008F02000202805D1202106F511
:10173000306000EB4510816008F40050B0F5005FA8
:1017400006D14FF4005106F5306000EB4510816082
:101750006D1C029840080290029800288AD12068E7
:1017600008F027FE00F48020B0F5802F7DD120689E
:1017700008F0E5FD029000259AE0029800F00100D3
:10178000002873D0E9B2206808F0EDFD804608F02B
:101790000100F0B305F00F0101208840019040F6F0
:1017A00034008159019821EA000040F63401885143
:1017B000012106F5106000EB45108160A079012839
:1017C00024D105EBC50104F1140000EB810005EB09
:1017D000C502C16804F1140000EB82008068014476
:1017E00005EBC50204F1140000EB8200C1606DB985
:1017F00005EBC50104F1140000EB8100006928B974
:1018000004F29C420121206808F0C2F9E9B22046A6
:1018100000E001E0FFF714FD08F00800082805D1FA
:10182000082106F5106000EB4510816008F01000FB
:10183000102805D1102106F5106000EB45108160DD
:1018400008F04000402805D1402106F5106000EB6B
:101850004510816008F0020002281DD12946584633
:1018600008F02BFD05EBC50101E025E01CE004F1CB
:10187000140000EB810A9AF80300012806D1002029
:101880008AF80300E9B2204600F00EFA022106F5BC
:10189000106000EB4510816008F08000802803D1C3
:1018A0002946204605F058F86D1C02984008029021
:1018B000029800287FF461AF206808F07AFD00F0FC
:1018C0000040B0F1004F1CD140F60400805920F0D8
:1018D000010140F60400815194F8CC04012807D19D
:1018E000002084F8CC0400212046FFF775FC02E0BC
:1018F000204600F057FB2068406900F00040216856
:101900004861206808F055FD00F40060B0F5006FF4
:101910000ED140F60800805900F0010010B12046B9
:1019200000F098FB2068406900F40060216848617D
:10193000206808F03EFD00F00060B0F1006F19D1A2
:101940002068406900F000602168486194F8CC0488
:1019500068B9012084F8CC042068406DC0F383008E
:10196000C4F8D00401212046FFF736FC02E02046EF
:1019700000F070FB206808F01CFD00F48050B0F50A
:10198000805F7ED140F60400805920F0010140F6CE
:10199000040081511021206808F08FFC002732E0FC
:1019A0004FF67F3106F5106000EB4710816006F5B9
:1019B000106000EB4710006820F4001106F510607D
:1019C00000EB471001604FF67F3106F5306000EB09
:1019D0004710816006F5306000EB4710006820F486
:1019E000001106F5306000EB4710016006F530602D
:1019F00000EB4710006840F0006106F5306000EB36
:101A0000471001607F1C2079B842C9D840F61C00FD
:101A1000805940F0011140F61C008151E07B70B10B
:101A2000D6F8840840F00B01C6F8841840F644004C
:101A3000805940F00B0140F6440081510FE040F620
:101A40001400805942F22B01084340F614018851DA
:101A5000081F805940F00B014FF401608151D6F806
:101A6000000820F4FE60C6F80008A17904F29C4248
:101A7000206808F08DF82068406900F480502168E3
:101A800000E000E04861206808F093FC00F400509A
:101A9000B0F5005F17D1206807F01EFE206808F03F
:101AA00036FCE07102F0B6F80090E2792068009907
:101AB00008F006FD204600F05DFA2068406900F459
:101AC000005021684861206808F073FC00F00800AD
:101AD000082808D1204600F06CFA2068406900F020
:101AE000080021684861206808F063FC00F080006D
:101AF00080282CD1DBF8180020F08000CBF81800EB
:101B0000012521E005EBC50104F5157000EB81000E
:101B1000C078012817D106F5306000EB4510006849
:101B200040F0006106F5306000EB4510016006F5FD
:101B3000306000EB4510006840F0804106F53060F1
:101B400000EB451001606D1C2079A842DAD82068AE
:101B500008F02FFC00F48010B0F5801F2DD1012576
:101B600022E006F5106000EB4510D0F8009005EB80
:101B7000C50104F1140000EB81000079012812D1A5
:101B800009F00040B0F1004F0DD1012105EBC50275
:101B900004F1140000EB8200C170E8B240F0800153
:101BA0002046FFF774FB6D1C2079A842D9D8206825
:101BB000406900F4801021684861206808F0F9FB52
:101BC00000F40010B0F5001F44D1012538E006F5FF
:101BD000306000EB4510D0F8009005EBC50104F52E
:101BE000157000EB81000079012828D109F0004030
:101BF000B0F1004F23D194F8D40400F00100C9F3F0
:101C0000004188421BD1012105EBC50204F5157086
:101C100000EB8200C170DBF8180040F08000CBF8C8
:101C20001800DBF8140000F0800040B940F6040012
:101C3000805940F4007140F60400815103E06D1CAE
:101C40002079A842C3D800BF2068406900F4001082
:101C500021684861206808F0ACFB00F08040B0F1DA
:101C6000804F08D12046FFF7E4FA2068406900F071
:101C7000804021684861206808F09BFB00F0040068
:101C800004280FD12068D0F8049009F0040004283B
:101C900002D12046FFF7F4FA2068406840EA0900C4
:101CA0002168486000BF73E470B504460D462946BC
:101CB000D4F8E00407F010F870BD70B504460D4686
:101CC0002946D4F8E00407F02EF870BD38B5044674
:101CD0000CB9012038BD94F8950428B9002084F887
:101CE0009404204600F0A2F8032084F895042068AC
:101CF00007F046FF207C8DF8000094E80F0007F005
:101D0000FFFC20B1022084F895040120E2E70021C5
:101D1000206808F083FB20B1022084F8950401209C
:101D2000D8E7002531E0012105EBC50204F11400DC
:101D300000EB8200417005EBC50104F1140000F8CE
:101D4000215005EBC50100EB81004583002105EB27
:101D5000C50204F1140000EB8200017105EBC5021D
:101D600004F1140000EB8200816005EBC50204F170
:101D7000140000EB8200C16005EBC50204F1140001
:101D800000EB82000161681CC5B22079A842CADC60
:101D900000252AE0002105EBC50204F5157000EBD3
:101DA0008200417005EBC50104F5157000F8215063
:101DB000002105EBC50200EB8200017105EBC502B5
:101DC00004F5157000EB8200816005EBC50204F597
:101DD000157000EB8200C16005EBC50204F51570BB
:101DE00000EB82000161681CC5B22079A842D1DCF9
:101DF000207C8DF8000094E80F0007F0D1FD20B1A1
:101E0000022084F89504012064E70020607401201A
:101E100084F89504207B012802D12046FFF7C8F9F9
:101E2000206807F0ABFD002054E7000010B5B8B003
:101E30000446142132A8FEF702FBC02102A8FEF7D7
:101E4000FEFA4749206888427ED14FF48021002065
:101E5000CDE902108800249002A800F097FE08B196
:101E6000FEF7C3FB00F040F900BF3E48006840F0B9
:101E700004003C4908600846006800F00400019036
:101E800000BF00BF00BF0846006840F001000860C6
:101E90000846006800F00100019000BF00BF00BFCD
:101EA0000846006840F0020008600846006800F03C
:101EB0000200019000BF00BF0D203290022033903D
:101EC00000203490022035900A20369032A926480E
:101ED000FEF704FD28203290022033900020349039
:101EE000022035900A20369032A92048FEF7F6FCF1
:101EF00043F6234032900220339000203490022099
:101F000035900A20369032A91948FEF7E7FC00BF49
:101F100014480838006840F0007012490839086019
:101F20000846006800F00070019000BF00BF00BFCD
:101F30000846006840F0806008600846006800F0CD
:101F40008060019000BF00E008E000BF0022012196
:101F50004D20FFF7DBF84D20FFF7C4F838B010BD77
:101F600000000440E04402580008025800000258F3
:101F70000004025870B504460125E07908B900252F
:101F800006E0E079022801D1012501E0FEF72DFBF2
:101F90002946D4F8E00406F077FFD4F8E00406F010
:101FA00019FF70BD10B50446D4F8E00406F04DFFEB
:101FB00010BD10B50446D4F8E00406F051FF10BD82
:101FC00070B504460D4600BF94F89404012801D171
:101FD000022070BD012084F8940400BF6574294676
:101FE000206808F04FFA00BF002084F8940400BF76
:101FF00000BFEEE710B5044604F29C41D4F8E004BB
:1020000006F059FF10BD70B50446256800BF94F86E
:102010009404012801D1022070BD012084F89404A9
:1020200000BFE86800F0400030B1607B012803D1B8
:10203000A86B40F48030A863206808F00FF920688E
:1020400007F08AFC00BF002084F8940400BF00BFA2
:10205000E2E7000010B50446D4F8E00406F087FF7C
:102060002068D0F8000E40F001002168C1F8000E91
:10207000E07A28B10348006840F006000149086092
:1020800010BD000010ED00E070B504461548006872
:10209000C0F3800048B91348006800F00700A04270
:1020A00001D0012070BD0020FCE70E48006820F040
:1020B000070020430B490860FEF72CFD054607E0AA
:1020C000FEF728FD401BB0F57A7F01D90120E9E732
:1020D000044808380068C0F340300028F0D00020E1
:1020E000E0E700000C4802580348006840F08070A8
:1020F00001490860704700000C480258F8B50446D2
:102100000025FEF707FD064694F8410000F00200A6
:10211000002847D000BF002084F8400000BF20689E
:10212000006800F0040070B12068006820F004002E
:1021300021680860E06BFEF75BFD05461DB1606C31
:1021400040F00400606420688068C0F3401030B341
:102150002068006840F0020021680860A06C3346E7
:10216000012202210090204604F0DCFD05465DB905
:1021700002202168C860A06C334600222021009014
:10218000204604F0CFFD054665B92068406920F07F
:10219000406021684861012084F8410002E001208C
:1021A00084F841002846F8BD7047000070B5044629
:1021B000002594F8410000F0020000283ED000BF46
:1021C000002084F8400000BF082084F84100206807
:1021D000006820F4F810216808602068006800F0AA
:1021E000040098B12068006820F0040021680860AD
:1021F0001348E16B8865E06BFEF742FDF0B101200A
:1022000084F841002046FFF7CFFF17E02068806880
:10221000C0F3401078B102202168C86020680068CF
:1022200040F40030216808602068006840F0020037
:102230002168086002E0012084F84100284670BD52
:10224000116C000870472DE9F84304460D46174607
:10225000FEF760FC8046A86900B100BFE86900B1E4
:1022600000BF286A00B100BF00BF94F840000128F9
:1022700002D10220BDE8F883012084F8400000BFAD
:1022800094F84100012828D100206064022084F8DD
:1022900041004346002220212046009704F042FDE1
:1022A0000646DEB900222946204604F0B0FB686AE3
:1022B00078B94346012202212046009704F032FDFE
:1022C00006465EB902202168C860012084F84100FA
:1022D00004E0012084F8410000E0022600BF002055
:1022E00084F8400000BF3046C4E710B504460CB97E
:1022F000012010BD2068006820F0010021680860FE
:10230000204600F0A7F90020606484F8410000BF77
:10231000EFE770477047014691F8410070470000B1
:102320002DE9F0410446206886682068076806F0B9
:102330000400002848D007F48020002844D02068FA
:1023400000F1200594F8410012281AD112E0E06A49
:1023500048B1606A00782870606A401C6062E06A78
:10236000401EE06206E02068006820F480202168BA
:10237000086005E020688068C0F380000028E6D18E
:102380001EE094F8410022281AD112E0A06B48B157
:102390002878216B0870206B401C2063A06B401EC6
:1023A000A06306E02068006820F4802021680860AF
:1023B00005E020688068C0F380000028E6D100BFF7
:1023C0002046FFF7A7FFE8E006F0020000287DD0D6
:1023D00007F40030002879D002202168C860206806
:1023E000006820F4E0202168086094F84100122879
:1023F00019D12068006800F0040068B12068006806
:1024000020F0040021680860E06B0068C06820F0DC
:102410000100E16B0968C860012084F84100204692
:1024200000F0B2FBB9E094F84100222832D12068D4
:10243000006800F0040070B12068006820F004001B
:1024400021680860E06B0068C06820F00100E16B63
:102450000968C86017E0206800F120050CE0A06B57
:1024600048B12878216B0870206B401C2063A06B5A
:10247000401EA06300E005E02068806800F47C5006
:102480000028ECD100BF012084F84100204600F074
:102490009FFA82E094F84100022806D1012084F8D6
:1024A00041002046FFF7CEFE77E094F8410008286F
:1024B00073D12068406920F04060216848610120A4
:1024C00084F84100606C28B9204600E006E0FFF780
:1024D0006BFE62E02046FFF71CFF5EE006F008009E
:1024E000B8B107F40020A0B108202168C8602068B6
:1024F000006800F4800040B12068006820F41020DB
:1025000021680860012084F84100204600F03AFB71
:1025100043E006F0010098B307F4803080B3012057
:102520002168C8602068006820F470202168086075
:10253000606C40F0020060642068006800F00400F5
:10254000B8B12068006820F00400216808601448D1
:10255000E16B8865E06BFEF793FBF0B1606C40F0D7
:1025600004006064012084F841002046FFF7D1FE9A
:1025700013E0012084F841002046FFF7CAFE0CE07A
:10258000FFE706F0100040B107F4801028B11020DA
:102590002168C860204600F0F6FABDE8F08100002E
:1025A000116C0008F8B50446FEF7B4FA06460CB9FB
:1025B0000120F8BD206A402800D000BF94F84100F7
:1025C00038B9204600F070F841F28831204600F01A
:1025D000D7FA2068006820F4F851A068401E41EA4C
:1025E000002021680860A06C334600222021009062
:1025F000204604F097FB054635BB2179E06840EAA8
:102600000160E1690843216A0843216809680F4AAB
:102610001140084321680860208A616941EA00404E
:10262000A169084321684968094A114008432168A3
:1026300048602068006840F00100216808600020C0
:102640006064012084F841002846B2E72FFFFF00B4
:10265000FEF8E0FF10B504460E492068884218D104
:102660000D48006820F480400B49086004210B48A5
:10267000FEF778F844210A48FEF774F84FF46051E9
:102680000848FEF76FF8E06BFEF748FB5C20FEF7AA
:1026900013FD10BD00500052D444025800100258DF
:1026A00000040258000C025810B5B8B004461421BA
:1026B00032A8FDF7C4FEC02102A8FDF7C0FE5C49A8
:1026C000206888427ED14FF000710020CDE90210D1
:1026D000159002A800F05AFA08B1FDF786FF00BF76
:1026E0005448006840F48040524908600846006839
:1026F00000F48040019000BF00BF00BF4D480C3087
:10270000006840F010004B490C3108600846006832
:1027100000F01000019000BF00BF00BF0846006835
:1027200040F0020008600846006800F002000190D6
:1027300000BF00BF00BF0846006840F00800086006
:102740000846006800F00800019000BF00BF0420A8
:1027500032900220339000203490032035900920DD
:10276000369032A93448FEF7B9F80420329002209E
:10277000339000203490032035900920369032A900
:102780002E48FEF7ABF84FF46050329002203390A1
:1027900000203490032035900920369032A9284833
:1027A000FEF79CF8402032900220339000203490B5
:1027B000032035900A20369032A92048FEF78EF883
:1027C000204800E032E020490860162048600021DF
:1027D0001D488160C021C1600021016141618161AA
:1027E000C16101624FF000714162042181620021E8
:1027F000C162016341638163FEF7B0FB08B1FDF77D
:10280000F4FE002211461048FEF751FA08B1FDF718
:10281000ECFE00BF0C48E063046400BF00221146D8
:102820005C20FEF773FC5C20FEF75CFC38B010BD4A
:1028300000500052D44402580010025800040258BC
:10284000000C025840000052240200242DE9F843F5
:1028500004460D460026206887692068006900F15B
:10286000010800BF94F84000012802D10220BDE811
:10287000F883012084F8400000BF94F8410001284B
:102880007AD100206064002D77D0C4F838802220EF
:1028900084F8410003202168C860A06B6063256351
:1028A0004948E16B48644948E16B48650020E16BA9
:1028B0008865E06B0068006940F203318843E16B92
:1028C00009680861E06B006A58B9E06B006800694C
:1028D00040F60C41884340F00800E16B096808614C
:1028E00024E0E06B006A40280BD1E06B00680069CF
:1028F00040F60C41884340F48160E16B096808614F
:1029000014E0E06B006A80280BD1E06B006800697E
:1029100040F60C41884300F60800E16B0968086145
:1029200004E0606C40F004006064012620684069A7
:1029300020F0406040F08060216848612068876135
:102940002068006840F480302168086020680068D2
:1029500040F004002168086001200090636B226849
:1029600002F120012A46E06BFEF72EFB30B900BFD2
:10297000002084F8400024E01DE012E02068006898
:1029800020F00400216808600126606C40F004001B
:102990006064012084F8410000BF002084F84000FA
:1029A0000FE0606C40F008006064012600BF00206A
:1029B00084F8400005E0022600BF002084F84000B3
:1029C00000BF304653E700007B6C0008536C0008E2
:1029D0002DE9F04F61480079042864D1604991F8ED
:1029E000A0CE604991F800805C490F8D5C49B1F838
:1029F000950E91F89D9EB9F1000F03D15A4A01241A
:102A0000022502E0594A00240325002344E0002166
:102A10003EE04FF0010A0AFA01FA0AEA080ABAF19E
:102A2000000F00D132E003EB031ADFF844B1DA44BF
:102A30000AEB410ABAF800A04FEA1A2A03EB031B7B
:102A4000DFF82CE1F3441BF811B00AEB0B2A1FFA54
:102A50008AF6A7F1010A824507DD824600F1010BE3
:102A60001FFA8BF022F81A600FE0A7F1010A8245E5
:102A70000BD122F810600020DFF8E4A08AF89D4E08
:102A8000DFF8D8A08AF8055009E000BF4E1CF1B26B
:102A90000829BEDB591C8BB26345B8DB00BF304947
:102AA000A1F8950E57E02D480079022853D02B4805
:102AB000007903284FD000212948A0F8951E80F8FE
:102AC0009D1E002020E02B4901EB40010A8800EB0D
:102AD0004001C1EBC011284B03EB01132649153906
:102AE000B1F8131003EB41010A80224901EB4001C8
:102AF0000A882049133101EB40211E4B9B7C01EBDE
:102B000043010A80411C88B20828DCDB1948807C1C
:102B1000401C1849887401F58050B0F81300401C1F
:102B200081B215481538A0F81310B0F813004FF40F
:102B30007A7190FBF1F201FB120081B20E48153858
:102B4000A0F813100B48007C0C490870034800687B
:102B5000401C02490860BDE8F08F0000D406002444
:102B6000B8640124971A01241C070024515500243D
:102B700059730124B8240124CD340124FCE201243A
:102B80008164704770477047704700002DE9F0413D
:102B900004460025A8464FF00062D4E90010114019
:102BA0000020134659404040014331D1A06E48B146
:102BB000B0F5801F0DD0B0F5001F11D0B0F5401F4B
:102BC00016D114E0F948006840F40030F749086075
:102BD00010E0022104F1080004F0D2F8054609E0F3
:102BE000022104F1280004F07DF9054602E001E02D
:102BF000012500BF00BF55B9EC482430006820F41F
:102C00004010A16E0843E9492431086000E0A8465D
:102C10004FF48073D4E9001019400020594040401F
:102C200001432ED1A06D05281BD2DFE800F0030A76
:102C300011181900DD48006840F40030DB490860D5
:102C400011E0002104F1080004F09AF805460AE0BA
:102C5000002104F1280004F045F9054603E002E0F4
:102C600001E0012500BF00BF55B9D04824300068FD
:102C700020F00700A16D0843CC492431086000E032
:102C8000A8464FF40073D4E90010194000205940C1
:102C90004040014334D1E06D802818D003DC40B1BE
:102CA00040281DD10CE0C02818D0B0F5807F17D186
:102CB00015E0BE48006840F40030BC49086011E0EF
:102CC000002104F1080004F05BF805460AE0002149
:102CD00004F1280004F006F9054603E002E001E0F3
:102CE000012500BF00BF55B9B0482430006820F46A
:102CF000E070E16D0843AD492431086000E0A8466A
:102D00004FF48063D4E9001019400020594040403E
:102D1000014339D1D4F8A800B0F5800F1AD004DCF3
:102D200050B1B0F5001F1ED10DE0B0F5C00F18D0A6
:102D3000B0F5000F17D115E09C48006840F4003052
:102D40009A49086011E0002104F1080004F018F825
:102D500005460AE0002104F1280004F0C3F8054606
:102D600003E002E001E0012500BF00BF5DB98F482C
:102D70002C30006820F46000D4F8A81008438B4978
:102D80002C31086000E0A8464FF40062D4E900103E
:102D900011400020134659404040014339D1D4F836
:102DA000AC00B0F1007F1AD004DC50B1B0F1807FEC
:102DB0001ED10DE0B0F1407F18D0B0F1806F17D177
:102DC00015E07A48006840F400307849086011E066
:102DD000002104F1080003F0D3FF05460AE00021BA
:102DE00004F1280004F07EF8054603E002E001E06B
:102DF000012500BF00BF5DB96C482C30006820F091
:102E0000E060D4F8AC10084368492C31086000E059
:102E1000A8464FF00073D4E9000118400021584043
:102E20004940084328D1E06CA8B1102804D02028DC
:102E300009D0302810D10DE05C48006840F4003023
:102E40005A4908600AE0022104F1080003F098FFE3
:102E5000054603E002E001E0012500BF00BF55B9CF
:102E600052482030006820F03000E16C08434F49A0
:102E70002031086000E0A8464FF48053D4E90010E8
:102E80001940002059404040014337D1206EB0F531
:102E9000005F1AD004DC50B1B0F5805F1ED10DE0A8
:102EA000B0F5405F18D0B0F5804F17D115E03F481E
:102EB000006840F400303D49086011E0002104F151
:102EC000080003F05DFF05460AE0002104F1280038
:102ED00004F008F8054603E002E001E0012500BF28
:102EE00000BF55B931482430006820F4E040216E1D
:102EF00008432E492431086000E0A8464FF40053EF
:102F0000D4E900101940002059404040014335D118
:102F1000606EB0F5403F1ED007DC68B1B0F5803F71
:102F20000BD0B0F5003F19D10EE0B0F5802F13D0D3
:102F3000B0F5A02F12D110E012E0012104F1080039
:102F400003F01EFF05460BE0012104F1280003F009
:102F5000C9FF054604E003E002E001E0012500BFEF
:102F600000BF55B911482430006820F4E020616E9C
:102F700008430E492431086000E0A8464FF480431E
:102F8000D4E900011840002158404940084337D196
:102F9000D4F8B000B0F1405F20D009DC78B1B0F1D6
:102FA000805F0DD0B0F1005F1BD110E02C440258BF
:102FB000B0F1804F13D0B0F1A04F12D110E012E069
:102FC000012104F1080003F0DBFE05460BE00121BE
:102FD00004F1280003F086FF054604E003E002E068
:102FE00001E0012500BF00BF4DB9FE48006820F098
:102FF000E040D4F8B0100843FA49086000E0A84661
:103000004FF40042D4E9001011400020134659400B
:103010004040014329D1206FB0B1B0F1805F03D0AF
:10302000B0F1005F11D108E0EE482C38006840F4A0
:103030000030EC492C39086009E0012104F1080056
:1030400003F09EFE054602E001E0012500BF00BF3F
:1030500055B9E4480838006820F04050216F084313
:10306000E0490839086000E0A8464FF08072D4E9D2
:1030700000101140002013465940404001432AD11E
:10308000A06CB8B1012804D002280BD0032812D1BB
:103090000FE0D4482C38006840F40030D1492C3976
:1030A00008600AE0022104F1080003F069FE054609
:1030B00003E002E001E0012500BF00BF55B9C948A7
:1030C0000C38006820F00300A16C0843C5490C3996
:1030D000086000E0A8464FF48002D4E900011040E7
:1030E000002113465840494008437DD1BE4800683E
:1030F00040F48070BC490860FDF70CFD064606E010
:10310000FDF708FD801B642801D9032505E0B648BA
:10311000006800F480700028F2D000BF85BBB14881
:103120001830006800F44070B4F8B41001F4407135
:10313000884213D0AB481830006820F44077A94883
:103140001830006840F48030A649183108600846FD
:10315000006820F48030086008460760D4F8B400A6
:10316000B0F5807F15D1FDF7D5FC064609E0FDF7E7
:10317000D1FC801B41F28831884202D9032507E047
:1031800038E0984818300068C0F340000028EED0BE
:1031900000BF55BB00BFB4F8B40000F44070B0F5F8
:1031A000407F0ED18F484838006820F47C518F4A08
:1031B000D4F8B400104041EA10108A494839086038
:1031C00007E088484838006820F47C508549483931
:1031D0000860844818300068B4F8B410C1F30B01DB
:1031E00008438049183101E005E001E0086002E091
:1031F000A84600E0A8460122D4E9000110400021C1
:10320000134658404940084330D1E06F18281AD07F
:1032100005DC48B1082808D0102817D10CE0202878
:1032200012D0282812D110E012E0012104F1080088
:1032300003F0A6FD05460BE0012104F1280003F090
:1032400051FE054604E003E002E001E0012500BF75
:1032500000BF55B96348001F006820F03800E16FD7
:1032600008436049091F086000E0A8460222D4E92B
:10327000000110400021134658404940084329D11D
:10328000A06F062816D2DFE800F003040B12131417
:1032900012E0012104F1080003F072FD05460BE085
:1032A000012104F1280003F01DFE054604E003E0BF
:1032B00002E001E0012500BF00BF55B94948001FE9
:1032C000006820F00700A16F08434649091F086005
:1032D00000E0A8460423D4E900101940002059401A
:1032E0004040014329D1D4F89400062816D2DFE8E3
:1032F00000F003040B12131412E0012104F1080082
:1033000003F03EFD05460BE0012104F1280003F027
:10331000E9FD054604E003E002E001E0012500BF0D
:1033200000BF4DB92F48006820F00700D4F8941072
:1033300008432C49086000E0A8462023D4E9000196
:103340001840002158404940084337D1D4F8900034
:10335000B0F1405F1ED007DC68B1B0F1805F0BD0E8
:10336000B0F1005F19D10EE0B0F1804F13D0B0F191
:10337000A04F12D110E012E0002104F1080003F088
:10338000FFFC05460BE0022104F1280003F0AAFD32
:10339000054604E003E002E001E0012500BF00BFB4
:1033A0005DB91048001F006820F0E040D4F890108C
:1033B00008430C49091F086000E0A8464023D4E9EF
:1033C0000010194000205940404001433CD1D4F83E
:1033D0009C00B0F5406F25D00EDCA0B1B0F5806F39
:1033E00012D005E05844025800480258FFFCFF0F75
:1033F000B0F5006F19D10EE0B0F5805F13D0B0F5D5
:10340000A05F12D110E012E0002104F1080003F0E7
:10341000B7FC05460BE0022104F1280003F062FD31
:10342000054604E003E002E001E0012500BF00BF23
:103430004DB9FE48006820F4E050D4F89C100843D1
:10344000FA49086000E0A8468023D4E9001019403A
:10345000002059404040014335D1D4F8A000B0F5D8
:10346000C04F1ED007DC68B1B0F5005F0BD0B0F5DF
:10347000804F19D10EE0B0F5004F13D0B0F5204FBA
:1034800012D110E012E0002104F1080003F078FCF2
:1034900005460BE0022104F1280003F023FD054658
:1034A00004E003E002E001E0012500BF00BF4DB9E8
:1034B000DE48006820F46040D4F8A0100843DB49DF
:1034C000086000E0A8460823D4E900101940002055
:1034D00059404040014317D1D4F88400B0F5805FD3
:1034E00007D1022104F1280003F0FCFC08B14FF0E1
:1034F0000108CE48001F006820F44050D4F8841022
:103500000843CA49091F08601023D4E90010194074
:10351000002059404040014315D1D4F89800B0F53F
:10352000807F07D1022104F1280003F0DBFC08B101
:103530004FF00108BD48006820F44070D4F898109E
:103540000843BA4908604FF40022D4E90001104052
:103550000021134658404940084327D1D4F8A4001D
:1035600030B1B0F5803F0AD0B0F5003F0FD10DE08B
:10357000002104F1080003F003FC054609E00221E4
:1035800004F1280003F0AEFC054602E001E001254D
:1035900000BF00BF4DB9A548006820F44030D4F802
:1035A000A4100843A149086000E0A8464FF4802316
:1035B000D4E90001184000215840494008432DD16A
:1035C000D4F88800B0F5801F06D0B0F5001F0CD0ED
:1035D000B0F5401F11D10FE094482C38006840F43A
:1035E000003092492C39086009E0012104F12800DB
:1035F00003F078FC054602E001E0012500BF00BFB2
:103600005DB98A48001F006820F44010D4F8881083
:1036100008438649091F086000E0A8464FF480323D
:10362000D4E90001104000211346584049400843A6
:1036300025D1206D18B1B0F5803F10D108E07B484E
:103640002C38006840F4003078492C39086008E0D4
:10365000022104F1080003F093FB054601E0012577
:1036600000BF00BF55B971480C38006820F48030A5
:10367000216D08436D490C39086000E0A8464FF001
:103680000052D4E900101140002013465940404038
:10369000014307D1022104F1280003F023FC08B103
:1036A0004FF001084FF40033D4E900011840002125
:1036B00058404940084329D1D4F88000A0B1B0F562
:1036C000807F06D0B0F5007F0CD0B0F5407F0CD1E4
:1036D00009E056482C38006840F4003053492C3932
:1036E000086004E003E002E001E0012500BF00BF44
:1036F0005DB94E48001F006820F44070D4F8801077
:1037000008434A49091F086000E0A8464FF48012A8
:10371000D4E90010114000201346594040400143B5
:1037200009D142480838006820F00040616F084322
:103730003E49083908604FF08052D4E9001011402A
:10374000002013465940404001430AD137484838C9
:10375000006820F48040D4F8B81008433349483951
:1037600008604FF40012D4E9001011400020134605
:1037700059404040014309D12C480838006820F0E6
:103780008070E16E08432949083908604FF0804293
:10379000D4E9001011400020134659404040014335
:1037A00011D100BF21484838006820F400401F496B
:1037B0004839086008460068D4F8BC1008431B4923
:1037C0004839086000BF4FF00042D4E900101140B2
:1037D0000020134659404040014309D113480C389A
:1037E000006820F04050616D084310490C390860B2
:1037F0004FF40002D4E90010114000201346594054
:10380000404001430AD10948001F006820F44000ED
:10381000D4F88C1008430549091F086001230021D2
:103820006068184001224940504001E05844025865
:10383000014306D104F1080003F0A2FA054605B1E0
:10384000A8460222002160681040494050400143D0
:1038500007D1012104F1080003F092FA054605B1F1
:10386000A8460423002061681940042240405140CA
:10387000084307D1022104F1080003F081FA05464C
:1038800005B1A84608230021606818400822494075
:103890005040014306D104F1280003F023FB054604
:1038A00005B1A846102200216068104049405040F0
:1038B000014307D1012104F1280003F013FB054661
:1038C00005B1A846202200206168114040405140C7
:1038D000084307D1022104F1280003F003FB054649
:1038E00005B1A846B8F1000F02D10020BDE8F08173
:1038F0000120FBE72DE9F04104460D4614B90120F3
:10390000BDE8F081BD48006800F00F00A8420ED26B
:10391000BA48006820F00F002843B84908600846FC
:10392000006800F00F00A84201D00120E8E72078ED
:1039300000F0040004280ED1B1492069096801F0A3
:103940007001884207D9AE48006820F070002169F4
:103950000843AB490860207800F00800082811D11E
:10396000A749091D6069096801F07001884209D9F9
:10397000A348001D006820F0700061690843A04959
:10398000091D0860207800F01000102811D19C4912
:10399000091DA069096801F4E061884209D99848C5
:1039A000001D006820F4E060A16908439449091DE6
:1039B0000860207800F02000202811D190490831BB
:1039C000E069096801F07001884209D98C48083023
:1039D000006820F07000E1690843894908310860F7
:1039E000207800F0020002280ED18549E0680968BD
:1039F00001F00F01884207D98148006820F00F00CC
:103A0000E16808437E490860207800F00100002842
:103A100050D07B48006820F47060A1680843784962
:103A200008606068022807D1754818380068C0F33C
:103A30004040F8B9012063E76068032807D1704867
:103A400018380068C0F34060A0B9012058E76068EA
:103A5000012807D16A4818380068C0F3002048B927
:103A600001204DE7664818380068C0F3800008B9A7
:103A7000012045E762480838006820F007006168C7
:103A800008435F4908390860FDF744F8064608E036
:103A9000FDF740F8801B41F28831884201D90320AC
:103AA0002EE757480838006800F038006168B0EB2E
:103AB000C10FEDD1207800F0020002280ED150494C
:103AC000E068096801F00F01884207D24C4800689D
:103AD00020F00F00E1680843494908604748006842
:103AE00000F00F00A8420ED94448006820F00F00F3
:103AF0002843424908600846006800F00F00A842C9
:103B000001D00120FCE6207800F0040004280ED14A
:103B10003B492069096801F07001884207D23848A2
:103B2000006820F07000216908433549086020785A
:103B300000F00800082811D13149091D60690968A1
:103B400001F07001884209D22D48001D006820F064
:103B50007000616908432A49091D0860207800F057
:103B60001000102811D12649091DA069096801F427
:103B7000E061884209D22248001D006820F4E0601C
:103B8000A16908431E49091D0860207800F0200043
:103B9000202811D11A490831E069096801F0700143
:103BA000884209D216480830006820F07000E169A8
:103BB000084313490831086000F052F810490968B9
:103BC000C1F303210F4A515C01F01F0120FA01F7F4
:103BD0000B48006800F00F001146085C00F01F0061
:103BE00027FA00F00849086008480760084800689C
:103BF000FCF7D2FF8046404682E6000000200052DB
:103C0000184402583CF80008400000243C000024FE
:103C10003400002410B500F023F80D490968C1F301
:103C200003210C4A515C01F01F0120FA01F40848FD
:103C3000006800F00F001146085C00F01F0024FA35
:103C400000F005490860054804600846006810BD9A
:103C5000184402583CF80008400000243C000024AE
:103C6000F0B5824E366806F0380636B1082E15D00B
:103C7000102E15D0182E7DD114E07C4E103E3668E3
:103C8000C6F3401646B1794E103E3668C6F3C107FA
:103C9000774E26FA07F000E07548E5E07548E3E066
:103CA0007548E1E0714E1836366806F003046F4E31
:103CB00018363668C6F305116C4E1C36366806F0A9
:103CC00001056A4E24363668C6F3CC0616FB05F6A7
:103CD00001EE106AB8EE410A002971D024B1012C1E
:103CE00050D0022C6DD16DE0604E103E3668C6F3A8
:103CF00040163EB35D4E103E3668C6F3C1075C4EBB
:103D000026FA07F301EE103AF8EE411A01EE101A06
:103D1000B8EE411A81EE812A9FED581AC0EE011AC1
:103D2000524E20363668C6F3080601EE106AB8EE29
:103D3000411A31EE811AF7EE001A31EE211A62EEC5
:103D4000010A1EE001EE101AB8EE411ADFED4C1A1E
:103D500081EE812A9FED491AC0EE011A434E2036AA
:103D60003668C6F3080601EE106AB8EE411A31EE65
:103D7000811A00E076E0F7EE001A31EE211A62EEC9
:103D8000010A5BE001EE101AB8EE411A9FED3D2AE0
:103D9000C2EE011A9FED391A80EE012A334E203609
:103DA0003668C6F3080601EE106AB8EE411A32EE24
:103DB000011AB7EE002A31EE021A61EE810A3DE0E7
:103DC0004EE01DE001EE101AB8EE411ADFED2E1A9A
:103DD00081EE812A9FED291AC0EE011A234E20366A
:103DE0003668C6F3080601EE106AB8EE411A31EEE5
:103DF000811AF7EE001A31EE211A62EE010A1DE077
:103E000001EE101AB8EE411A9FED1E2AC2EE011AF9
:103E10009FED1A1A80EE012A144E20363668C6F33A
:103E2000080601EE106AB8EE411A32EE011AB7EE3A
:103E3000002A31EE021A61EE810A00BF00BF0B4E6C
:103E400020363668C6F34626721C01EE102AB8EEFC
:103E5000411AC0EE811ABCEEE11A11EE100A00E020
:103E6000002001E0034800BF00BFF0BD104402582D
:103E70000090D00300093D0040787D01000000461D
:103E80000024744C0024744A20BCBE4B2DE9F0473A
:103E9000044614B90120BDE8F087207800F0010045
:103EA000002870D0FA48006800F03808F848183048
:103EB000D0F80090B8F1100F06D0B8F1180F0FD15C
:103EC00009F0030002280BD1F14810380068C0F354
:103ED000404000286AD06068002867D10120DAE7F6
:103EE00000BF6068B0F5803F08D1E948103800682D
:103EF00040F48030E649103908602EE0606868B907
:103F0000E3481038006820F48030E1491039086037
:103F10000846006820F4802008601EE06068B0F564
:103F2000A02F0DD1DA481038006840F48020D8491D
:103F3000103908600846006840F4803008600CE0E2
:103F4000D3481038006820F48030D1491039086017
:103F50000846006820F48020086000BF606898B1BF
:103F6000FCF7D8FD054606E0FCF7D4FD401B6428AD
:103F700001D903208FE7C64810380068C0F34040DD
:103F80000028F1D012E012E0FCF7C4FD054606E07F
:103F9000FCF7C0FD401B642801D903207BE7BC4827
:103FA00010380068C0F340400028F1D100BF2078ED
:103FB00000F00200022874D1B548006800F038080B
:103FC000B3481830D0F80090B8F1000F05D0B8F120
:103FD000180F56D109F00300D0BBAD481038006867
:103FE000C0F3800018B1E06808B9012053E7A84881
:103FF0001038006820F01900E1680843A44910391E
:104000000860FCF787FD054606E0FCF783FD401BD2
:10401000022801D903203EE79D4810380068C0F30C
:1040200080000028F1D000BFFCF76EFD41F20301D3
:1040300088421AD8206940280BD195480C3800686E
:1040400020F47C3040F4003091490C39086017E0CE
:1040500017E08F480C38006820F47C30216940EA72
:1040600001308B490C3908600AE089480C38006837
:1040700020F0FE40217C40EA016085490C3908604F
:1040800066E0E06888B382481038006820F01900C4
:10409000E16808437E4910390860FCF73BFD05469E
:1040A00007E056E0FCF736FD401B022801D903204B
:1040B000F1E6774810380068C0F380000028F1D09E
:1040C00000BFFCF721FD41F2030188421AD82069A4
:1040D00040280BD16E480C38006820F47C3040F446
:1040E00000306B490C39086017E017E068480C385D
:1040F000006820F47C30216940EA013064490C39C1
:1041000008600AE062480C38006820F0FE40217C1C
:1041100040EA01605E490C39086019E05C481038DB
:10412000006820F001005A4910390860FCF7F2FCE1
:10413000054606E0FCF7EEFC401B022801D90320EF
:10414000A9E6534810380068C0F380000028F1D178
:1041500000BF207800F0100010287CD14C48006887
:1041600000F038084A481830D0F80090B8F1080F2D
:1041700006D0B8F1180F3DD109F00300012839D15C
:10418000434810380068C0F3002020B1E06980285F
:1041900001D001207FE600BFFCF7B6FC41F203012D
:1041A00088421AD8206A20280AD139480C38006879
:1041B00020F0F84040F0804035490C39086018E0A4
:1041C00033480C38006820F0F84094F8201040EA9A
:1041D00081602F490C3908600BE02D48001F0068F2
:1041E00020F07C5094F8201040EA01602849091F13
:1041F000086066E0E06978B325481038006840F050
:104200008000234910390860FCF784FC054606E06D
:10421000FCF780FC401B022801D903203BE61C4828
:1042200010380068C0F300200028F1D000BFFCF770
:104230006BFC41F2030188421CD8206A20280CD173
:1042400013480C38006820F0F84040F080401049D6
:104250000C3908601AE035E01CE00D480C380068A5
:1042600020F0F84094F8201040EA816008490C39A9
:1042700008600BE00648001F006820F07C5094F8AE
:10428000201040EA01600249091F086019E000009F
:1042900010440258FA48006820F08000F84908608D
:1042A000FCF738FC054606E0FCF734FC401B02280E
:1042B00001D90320EFE5F2480068C0F30020002890
:1042C000F2D100BF207800F00800082836D16069DC
:1042D000D0B1EB487430006840F00100E849743117
:1042E0000860FCF717FC054606E0FCF713FC401BD2
:1042F000022801D90320CEE5E14874300068C0F3FC
:1043000040000028F1D019E0DD487430006820F04A
:104310000100DB4974310860FCF7FCFB054606E050
:10432000FCF7F8FB401B022801D90320B3E5D44871
:1043300074300068C0F340000028F1D1207800F00C
:104340002000202830D1A069B8B1CD48006840F4E1
:104350008050CB490860FCF7DDFB054606E0FCF722
:10436000D9FB401B022801D9032094E5C44800680A
:10437000C0F340300028F2D016E0C148006820F4B5
:104380008050BF490860FCF7C5FB054606E0FCF716
:10439000C1FB401B022801D903207CE5B848006816
:1043A000C0F340300028F2D1207800F00400042847
:1043B0007DD1B448006840F48070B2490860FCF7D1
:1043C000A9FB054606E0FCF7A5FB401B642801D9C4
:1043D000032060E5AB48006800F480700028F2D04C
:1043E00000BFA068012808D1A5487030006840F0DF
:1043F0000100A349703108602DE0A06868B9A048A9
:104400007030006820F001009D4970310860084656
:10441000006820F0040008601DE0A06805280DD1A8
:1044200097487030006840F004009549703108608A
:104430000846006840F0010008600CE090487030C9
:10444000006820F001008E4970310860084600685D
:1044500020F00400086000BFA068A0B1FCF75AFB80
:10446000054608E0FCF756FB401B41F288318842C4
:1044700001D903200FE5824870300068C0F3400086
:104480000028EFD013E0FCF745FB054608E0FCF7F9
:1044900041FB401B41F28831884201D90320FAE4F4
:1044A000774870300068C0F340000028EFD1606AA0
:1044B00000287DD072481030006800F038001828BD
:1044C00077D0606A022875D16D48006820F080704E
:1044D0006B490860FCF71EFB054606E0FCF71AFB7B
:1044E000401B022801D90320D5E465480068C0F3C9
:1044F00040600028F2D100BFD4E90A1041EA001060
:104500005F492831096840F2F332914308435C491E
:1045100028310860208E401EC0F30800616B491EE0
:104520004FF47E4202EA41210843218F491ED20105
:1045300002EA014108433C21095D491E120202EAD8
:10454000016108434E493031086000BF081F006810
:1045500020F00100091F08604948343000684FF618
:10456000F8718843A16C40EAC100454934310860C4
:1045700043482C30006820F00C00216C084340496F
:104580002C3108600846006820F00200616C084386
:104590003B492C3108600846006840F480300860D0
:1045A0000846006840F4003008600846006802E0F1
:1045B00093E038E01FE040F480200860084600687F
:1045C00040F0010008602E48006840F080702C49DF
:1045D0000860FCF79FFA054606E0FCF79BFA401BD3
:1045E000022801D9032056E425480068C0F3406042
:1045F0000028F2D071E02248006820F08070204945
:104600000860FCF787FA054606E0FCF783FA401BD2
:10461000022801D903203EE419480068C0F3406035
:104620000028F2D159E01648283007681448303085
:104630000668606A012821D007F00301A06A814260
:104640001CD1C7F30511E06A884217D1C6F30801EF
:10465000206B401E814211D1606B401EC6F3462183
:1046600088420BD1A06B401EC6F30641884205D19B
:10467000E06B401EC6F30661884205D001200AE4C3
:10468000004402580048025815480068C0F3CC079F
:10469000A06CB84221D012480838006820F0010010
:1046A0000F4908390860FCF735FA054600BFFCF7EA
:1046B00031FA401BFBD00A4800684FF6F871884376
:1046C000A16C40EAC1000649086005480838006846
:1046D00040F0010002490839086000204AE4000067
:1046E0003444025870B504460CB9012070BD606AAC
:1046F00000B900BF0021A1626349206888420CD044
:1047000062492068884208D061492068884204D004
:10471000E0680F2801D90120E8E7204602F0FFFCFD
:10472000054659492068884209D05849206888427E
:1047300005D057492068884201D0082D0DD852492C
:104740002068884207D051492068884203D05049E8
:104750002068884203D1102D01D90120C6E794F8C2
:10476000810028B9002084F88000204600F092F8EB
:10477000022084F881002068006820F00100216890
:1047800008602068806800F4F816A069B0F1806FB6
:1047900011D16068B0F5800F01D1A06B28B16068BD
:1047A00048B9A06BB0F1805F05D12068006840F483
:1047B000805021680860606800F48000B0F5800FC8
:1047C0000BD1E068072808D32068006820F48070C7
:1047D000216D08432168086005E02068006820F426
:1047E000807021680860A16AE06908433043E16B8A
:1047F0000843E168084321688860616A606B084388
:10480000A16B0843A1690843216908436169084312
:10481000216A084361680843E16C0843A1680843C2
:10482000A16C0843A16D08432168C860606878B92D
:104830002068806820F4C05040F4006021688860DF
:104840002068806820F4C06040F48060216888603F
:104850002068006D20F0010021680865606800F4A0
:104860008000B0F5800F07D12068C06820F00040BC
:10487000616D08432168C8600020C4F884000120ED
:1048800084F88100002031E700300140003800400A
:10489000003C004010B5B8B00446142132A8FBF724
:1048A000CEFDC02102A8FBF7CAFD834920688842DB
:1048B00050D181140020CDE902101A9002A8FEF711
:1048C00065F908B1FBF791FE00BF7C48006840F431
:1048D00080507A4908600846006800F480500190D2
:1048E00000BF00BF00BF75481038006840F00100ED
:1048F0007249103908600846006800F00100019014
:1049000000BF00BF00BF0846006840F0020008601A
:104910000846006800F00200019000BF00BFC02000
:10492000329002203390002034903590052036904C
:1049300032A96348FBF7D2FF08203290022033905F
:104940000020349035900520369032A95D48FBF761
:10495000C5FFAFE05C492068884254D18114002033
:10496000CDE902101A9002A8FEF710F908B1FBF782
:104970003CFE00BF51480838006840F480404F4971
:10498000083908600846006800F48040019000BFC4
:1049900000BF00BF49481038006840F00200474996
:1049A000103908600846006800F00200019000BF5E
:1049B00000BF00BF0846006840F0010008600846DC
:1049C000006800F00100019000BF00BF4FF44040BC
:1049D000329002203390002034903590052036909C
:1049E00032A93848FBF77AFF4FF40070329002206A
:1049F00033900020349035900520369032A930480D
:104A0000FBF76CFF56E031492068884252D181148F
:104A10000020CDE902101A9002A8FEF7B7F808B1FD
:104A2000FBF7E3FD00BF25480838006840F400406C
:104A30002249083908600846006800F400400190E7
:104A400000BF00BF00BF1D481038006840F00400E0
:104A50001A49103908600846006800F00400019007
:104A600000BF00BF00BF0846006840F002000860B9
:104A70000846006800F00200019000BF00BF4FF43C
:104A8000A0503290022033900020349035900620C0
:104A9000369032A90E48FBF721FF102032900220F9
:104AA00033900020349035900620369032A9054886
:104AB000FBF714FF38B010BD00300140F04402583D
:104AC000000002580004025800380040003C00403A
:104AD000000802582DE9F05F0446894617461E4635
:104AE000E06B4009401C1FFA80FB206800F1300891
:104AF000FCF710F8824694F88100012802D00220C9
:104B0000BDE8F09FB9F1000F00D00FB90120F7E721
:104B100000BF94F88000012801D10220F0E70120B5
:104B200084F8800000BF04205C3484F82500002055
:104B3000A062C4F80890A781E7812060A080E0808F
:104B40006061A0615C3CA068B0F5C02F06D1206810
:104B5000006820F400602168086007E02068C068F1
:104B600020F4C02040F480202168C860206840689C
:104B70006FF30F003843216848602068006840F0F8
:104B80000100216808606068B0F5800F05D12068D9
:104B9000006840F4007021680860E0680F285CD964
:104BA00056E0206845692068406900F0010060B166
:104BB0002068006B616E0860606E001D6066B4F86E
:104BC0006A00401EA4F86A0042E0B4F86A00584542
:104BD0000FDA05F4004060B12068006B616E086078
:104BE000606E001D6066B4F86A00401EA4F86A009A
:104BF0002EE005F40060B0F5006F0DD1206800686C
:104C000000F40070B0F5007F22D12068806940F484
:104C10000060216888611BE0FBF77CFFA0EB0A00C5
:104C2000B04201D3701C00B996B9204602F00CFACC
:104C3000D4F8840040F48070C4F88400012084F823
:104C4000810000BF002084F8800000BF032057E7E8
:104C5000B4F86A000028A4D107E1E068072878D9F1
:104C600072E0206845692068406900F0010060B189
:104C7000B8F80000616E0880606E801C6066B4F851
:104C80006A00401EA4F86A005EE0B4F86A00584565
:104C900016DA05F4004098B1B8F80000616E08809B
:104CA000606E801C6066B8F80000616E0880606EFF
:104CB000801C6066B4F86A00801EA4F86A0043E0B5
:104CC000B4F86A0001280FD105F4005060B1B8F8BB
:104CD0000000616E0880606E801C6066B4F86A0037
:104CE000401EA4F86A002FE005F40060B0F5006FE4
:104CF0000DD12068006800F40070B0F5007F23D16A
:104D00002068806940F40060216888611CE0FBF73E
:104D100001FFA0EB0A00B04201D3701C00B99EB99C
:104D2000204602F091F9D4F8840040F48070C4F871
:104D30008400012084F8810000BF002084F88000F6
:104D400000BF0320DCE604E0B4F86A00002888D144
:104D50008BE085E0206845692068406900F001002B
:104D600068B1206890F83000616E0870606E401C79
:104D70006066B4F86A00401EA4F86A0070E0B4F8F7
:104D80006A00584528DA05F4004028B3206890F8F6
:104D90003000616E0870606E401C6066206890F89C
:104DA0003000616E0870606E401C6066206890F88C
:104DB0003000616E0870606E401C6066206890F87C
:104DC0003000616E0870606E401C6066B4F86A0066
:104DD000001FA4F86A0043E0B4F86A00042810D267
:104DE00005F4C04068B1206890F83000616E08702A
:104DF000606E401C6066B4F86A00401EA4F86A0049
:104E00002EE005F40060B0F5006F0DD12068006859
:104E100000F40070B0F5007F22D12068806940F472
:104E20000060216888611BE0FBF774FEA0EB0A00BC
:104E3000B04201D3701C00B996B9204602F004F9C3
:104E4000D4F8840040F48070C4F88400012084F811
:104E5000810000BF002084F8800000BF03204FE6DF
:104E6000B4F86A0000287FF475AF204602F0ECF831
:104E7000012084F8810000BF002084F8800000BF7A
:104E8000D4F8840008B101203AE6002038E62DE984
:104E9000F8430446884616461D46206800F120095E
:104EA000FBF738FE074694F88100012802D0022063
:104EB000BDE8F883B8F1000F00D00EB90120F7E784
:104EC00000BF94F88000012801D10220F0E7012002
:104ED00084F8800000BF03205C3484F825000020A3
:104EE000A062C4F80080A680E680A060A081E08176
:104EF000A06160615C3CA068B0F5C02F06D120685D
:104F0000006840F400602168086007E02068C0681D
:104F100020F4C02040F400302168C8602068406858
:104F20006FF30F003043216848602068006840F04C
:104F30000100216808606068B0F5800F05D1206825
:104F4000006840F4007021680860E0680F2833D9D9
:104F50002DE02068406900F0020002280CD1E06DCD
:104F6000006821680862E06D001DE065B4F8620029
:104F7000401EA4F862001AE0FBF7CCFDC01BA8425B
:104F800001D3681C00B995B9204602F05DF8D4F849
:104F9000840040F48070C4F88400012084F881000B
:104FA00000BF002084F8800000BF032080E7B4F831
:104FB00062000028CDD1A4E0E068072846D940E08F
:104FC0002068406900F0020002281FD1B4F8620096
:104FD00001280ED9E06B60B1E06D006821680862BD
:104FE000E06D001DE065B4F86200801EA4F8620068
:104FF00027E0E06D0088A9F80000E06D801CE06506
:10500000B4F86200401EA4F862001AE0FBF782FDCB
:10501000C01BA84201D3681C00B995B9204602F014
:1050200013F8D4F8840040F48070C4F884000120A0
:1050300084F8810000BF002084F8800000BF0320B6
:1050400036E7B4F862000028BAD15AE055E020688B
:10505000406900F00200022834D1B4F8620003284D
:105060000FD9E06B40280CD9E06D00682168086218
:10507000E06D001DE065B4F86200001FA4F8620056
:105080003BE0B4F8620001280ED9E06B60B1E06D3E
:105090000088A9F80000E06D801CE065B4F86200AB
:1050A000801EA4F8620028E0E06D0078216881F895
:1050B0002000E06D401CE065B4F86200401EA4F8DA
:1050C00062001AE0FBF726FDC01BA84201D3681C52
:1050D00000B995B9204601F0B7FFD4F8840040F438
:1050E0008070C4F88400012084F8810000BF002093
:1050F00084F8800000BF0320DAE6B4F862000028DC
:10510000A5D12B46002208212046009702F014F872
:1051100028B1D4F8840040F02000C4F88400204670
:1051200001F092FF012084F8810000BF002084F884
:10513000800000BFD4F8840008B10120B8E6002048
:10514000B6E670B504462546681EB0F1807F01D3EF
:1051500001200FE0681E4FF0E02148610F214FF061
:10516000FF3005F04DFA00204FF0E0218861072064
:105170000861002070BD70477047704710B5034646
:10518000002200BF93F83C00012801D1022010BD8D
:10519000012083F83C0000BF22F0FF00CC6840EA09
:1051A000040222F440708C6840EA040222F4806019
:1051B0004C6840EA040222F400600C6840EA0402F1
:1051C00022F480500C6940EA040222F400504C6939
:1051D00040EA040222F480408C6A40EA040222F48D
:1051E00070200C8B40EA04420F4C1868A04203D098
:1051F0000E4C1868A0420ED122F470008C8C40EA4C
:10520000045222F08070CC6940EA040222F000705F
:105210000C6A40EA04021868426400BF002083F868
:105220003C0000BF00BFB2E70000014000040140A5
:1052300030B502460B4600BF92F83C00012801D170
:10524000022030BD012082F83C0000BF022082F81D
:105250003D001068416810688468214D1068A842BC
:1052600003D0204D1068A84203D121F47001586882
:10527000014321F070011868014310684160184D26
:105280001068A8421BD01068B0F1804F17D0164D9F
:105290001068A84213D0154D1068A8420FD0144DC5
:1052A0001068A8420BD00F4D1068A84207D0114DCE
:1052B0001068A84203D0104D1068A84205D124F010
:1052C00080049868044310688460012082F83D00DF
:1052D00000BF002082F83C0000BF00BFB1E7000023
:1052E00000000140000401400004004000080040AC
:1052F000000C0040001800400040014010B504467A
:105300000CB9012010BD94F83D0028B9002084F8A4
:105310003C00204600F02AF8022084F83D00211DC0
:10532000206802F01DFA012084F8480000BF84F8CC
:105330003E0001213F2001554020015541200155EB
:10534000422001554320015500BF00BF012084F8D1
:10535000440045200155462001554720015500BF16
:10536000012084F83D000020CCE7000038B5044659
:105370001A492068884216D100BF1948006840F0D9
:105380008000174908600846006800F0800000901F
:1053900000BF00BF002201212C20FBF7B7FE2C200C
:1053A000FBF7A0FE19E00F492068884215D100BF25
:1053B0000B48006840F4807009490860084600689E
:1053C00000F48070009000BF00BF002201212D205A
:1053D000FBF79CFE2D20FBF785FE38BD001C00402E
:1053E000E844025800200040014691F83D000128A1
:1053F00001D001207047022081F83D000868C06894
:1054000040F001000B68D8601C4B086898421BD024
:105410000868B0F1804F17D0194B0868984213D034
:10542000184B086898420FD0174B086898420BD069
:10543000164B0868984207D0154B0868984203D06D
:10544000144B0868984210D108688068124B00EA33
:105450000302062A0FD0B2F5803F0CD0086800681E
:1054600040F001000B68186005E00868006840F033
:1054700001000B6818600020BCE70000000001403C
:105480000004004000080040000C004000040140FF
:10549000001800400040014007000100704770B54F
:1054A00004462068C6682068056905F002000228E5
:1054B00019D106F00200022815D1401F21680861A9
:1054C000012020772068806900F0030018B1204691
:1054D000FFF7E4FF05E0204600F092F9204600F0D7
:1054E00087FB0020207705F00400042819D106F07E
:1054F0000400042815D1C0432168086102202077E8
:105500002068806900F4407018B12046FFF7C6FF9C
:1055100005E0204600F074F9204600F069FB002009
:10552000207705F00800082819D106F0080008289F
:1055300015D1C04321680861042020772068C06924
:1055400000F0030018B12046FFF7A8FF05E0204651
:1055500000F056F9204600F04BFB0020207705F0C4
:105560001000102819D106F01000102815D1C043E2
:1055700021680861082020772068C06900F4407025
:1055800018B12046FFF78AFF05E0204600F038F901
:10559000204600F02DFB0020207705F0010048B1E7
:1055A00006F0010030B16FF001002168086120466B
:1055B00000F0D2FB05F08000802804D005F40050F4
:1055C000B0F5005F0AD106F08000802806D16FF4A4
:1055D0000250216808612046FFF7CEFD05F4807077
:1055E000B0F5807F0AD106F08000802806D16FF4E4
:1055F0008070216808612046FFF7BDFD05F040007E
:10560000402809D106F04000402805D1C043216858
:105610000861204600F002FC05F02000202809D196
:1056200006F02000202805D1C043216808612046EB
:10563000FFF7A3FD70BD000010B586B0044614212D
:1056400001A8FAF7FCFE6449206888421DD100BF1A
:105650006248006840F01000604908600846006831
:1056600000F01000009000BF00BF4FF400700190E8
:105670000220029000200390032004900120059056
:1056800001A95748FBF72AF9A3E02068B0F1804F41
:105690001BD100BF5148006840F001004F4908602D
:1056A0000846006800F00100009000BF00BF022023
:1056B00001900290002003900320049001200590A7
:1056C00001A94848FBF70AF983E047492068884266
:1056D0001CD100BF4148006840F004003F49086009
:1056E0000846006800F00400009000BF00BF802062
:1056F00001900220029000200390032004900220D9
:10570000059001A93948FBF7E9F862E038492068BB
:1057100088421DD100BF3148006840F008002F4981
:1057200008600846006800F00800009000BF00BF55
:105730004FF480400190022002900020039003204B
:1057400004900220059001A92A48FBF7C7F840E021
:105750002949206888421CD100BF2048006840F0D9
:1057600001001E4908600846006800F00100009032
:1057700000BF00BF0420019002200290002003908F
:10578000032004900220059001A91648FBF7A6F813
:105790001FE01A49206888421BD100BF0F480068EB
:1057A00040F004000D4908600846006800F004005D
:1057B000009000BF00BF4FF40070019002200290E3
:1057C0000020039003200490059001A90748FBF7EF
:1057D00085F806B010BD000000000140E04402580A
:1057E000001002580000025800040040000802584F
:1057F00000080040000C0258000C0040000401406A
:1058000070472DE9F04104460D461646002700BFBB
:1058100094F83C00012802D10220BDE8F08101206B
:1058200084F83C0000BF0C2E51D005DC4EB1042E94
:105830001ED0082E7AD133E0102E60D0142EF9D16C
:1058400075E02946206802F007F82068806940F07A
:105850000800216888612068806920F004002168C0
:10586000886120688069296908432168886178E037
:105870002946206802F048F82068806940F40060FA
:10588000216888612068806920F4806021688861CF
:1058900020688069296940EA01202168886160E008
:1058A0002946206802F08CF82068C06940F00800A2
:1058B0002168C8612068C06920F004002168C861BF
:1058C0002068C069296908432168C86149E0294600
:1058D000206802F0D1F82068C06940F400602168B7
:1058E000C8612068C06920F480602168C8612068B0
:1058F000C069296940EA01202168C86131E0294670
:10590000206802F0F3F82068406D40F0080021683C
:1059100048652068406D20F00400216848652068D3
:10592000406D29690843216848651AE017E0294657
:10593000206802F013F92068406D40F4006021688F
:1059400048652068406D20F48060216848652068C3
:10595000406D296940EA01202168486501E001277E
:1059600000BF00BF00BF002084F83C0000BF3846E5
:1059700053E710B504460CB9012010BD94F83D0062
:1059800028B9002084F83C00204600F029F80220C5
:1059900084F83D00211D206801F0E2FE012084F81A
:1059A000480000BF84F83E0001213F2001554020FF
:1059B000015541200155422001554320015500BFAA
:1059C00000BF012084F844004520015546200155C0
:1059D0004720015500BF012084F83D000020CCE79E
:1059E00038B504467B49206888422ED100BF7A48EA
:1059F000006840F00100784908600846006800F03F
:105A00000100009000BF00BF002201211820FBF719
:105A10007DFB1820FBF766FB002201211920FBF714
:105A200075FB1920FBF75EFB002201211A20FBF712
:105A30006DFB1A20FBF756FB002201211B20FBF710
:105A400065FB1B20FBF74EFBC2E02068B0F1804FE6
:105A500018D100BF60480838006840F001005E4976
:105A6000083908600846006800F00100009000BF97
:105A700000BF002201211C20FBF748FB1C20FBF784
:105A800031FBA5E055492068884218D100BF524833
:105A90000838006840F002004F490839086008469D
:105AA000006800F00200009000BF00BF002201214A
:105AB0001D20FBF72BFB1D20FBF714FB88E048495A
:105AC0002068884218D100BF43480838006840F079
:105AD00004004149083908600846006800F00400E5
